{
  "contractName": "DuckFactory",
  "abi": [
    {
      "inputs": [],
      "stateMutability": "nonpayable",
      "type": "constructor"
    },
    {
      "anonymous": false,
      "inputs": [
        {
          "indexed": true,
          "internalType": "address",
          "name": "previousOwner",
          "type": "address"
        },
        {
          "indexed": true,
          "internalType": "address",
          "name": "newOwner",
          "type": "address"
        }
      ],
      "name": "OwnershipTransferred",
      "type": "event"
    },
    {
      "inputs": [],
      "name": "owner",
      "outputs": [
        {
          "internalType": "address",
          "name": "",
          "type": "address"
        }
      ],
      "stateMutability": "view",
      "type": "function"
    },
    {
      "inputs": [],
      "name": "renounceOwnership",
      "outputs": [],
      "stateMutability": "nonpayable",
      "type": "function"
    },
    {
      "inputs": [
        {
          "internalType": "address",
          "name": "newOwner",
          "type": "address"
        }
      ],
      "name": "transferOwnership",
      "outputs": [],
      "stateMutability": "nonpayable",
      "type": "function"
    },
    {
      "inputs": [
        {
          "internalType": "address",
          "name": "egg_",
          "type": "address"
        }
      ],
      "name": "setEggContract",
      "outputs": [],
      "stateMutability": "nonpayable",
      "type": "function"
    },
    {
      "inputs": [
        {
          "internalType": "uint256",
          "name": "eggId_",
          "type": "uint256"
        },
        {
          "internalType": "address",
          "name": "toAddress_",
          "type": "address"
        }
      ],
      "name": "mint",
      "outputs": [],
      "stateMutability": "nonpayable",
      "type": "function"
    },
    {
      "inputs": [],
      "name": "pickRandom",
      "outputs": [
        {
          "internalType": "uint256",
          "name": "",
          "type": "uint256"
        }
      ],
      "stateMutability": "nonpayable",
      "type": "function"
    },
    {
      "inputs": [],
      "name": "getRand",
      "outputs": [
        {
          "internalType": "uint256",
          "name": "",
          "type": "uint256"
        }
      ],
      "stateMutability": "view",
      "type": "function"
    },
    {
      "inputs": [],
      "name": "getSeed",
      "outputs": [
        {
          "internalType": "uint256",
          "name": "",
          "type": "uint256"
        }
      ],
      "stateMutability": "view",
      "type": "function"
    }
  ],
  "bytecode": "0x608060405234801561001057600080fd5b5061002d61002261003a60201b60201c565b61004260201b60201c565b6001600381905550610106565b600033905090565b60008060009054906101000a900473ffffffffffffffffffffffffffffffffffffffff169050816000806101000a81548173ffffffffffffffffffffffffffffffffffffffff021916908373ffffffffffffffffffffffffffffffffffffffff1602179055508173ffffffffffffffffffffffffffffffffffffffff168173ffffffffffffffffffffffffffffffffffffffff167f8be0079c531659141344cd1fd0a4f28419497f9722a3daafe3b4186f6b6457e060405160405180910390a35050565b610a9a806101156000396000f3fe608060405234801561001057600080fd5b50600436106100885760003560e01c80638da5cb5b1161005b5780638da5cb5b146100ef57806394bf804d1461010d578063d0b28caa14610129578063f2fde38b1461014757610088565b80631fbea9481461008d57806339e7357c146100a9578063600bc4ea146100c7578063715018a6146100e5575b600080fd5b6100a760048036038101906100a29190610632565b610163565b005b6100b1610223565b6040516100be919061081b565b60405180910390f35b6100cf61022d565b6040516100dc919061081b565b60405180910390f35b6100ed610249565b005b6100f76102d1565b60405161010491906107a0565b60405180910390f35b6101276004803603810190610122919061065b565b6102fa565b005b610131610396565b60405161013e919061081b565b60405180910390f35b610161600480360381019061015c9190610632565b6103de565b005b61016b6104d6565b73ffffffffffffffffffffffffffffffffffffffff166101896102d1565b73ffffffffffffffffffffffffffffffffffffffff16146101df576040517f08c379a00000000000000000000000000000000000000000000000000000000081526004016101d6906107db565b60405180910390fd5b80600160006101000a81548173ffffffffffffffffffffffffffffffffffffffff021916908373ffffffffffffffffffffffffffffffffffffffff16021790555050565b6000600354905090565b6000600460009054906101000a900461ffff1661ffff16905090565b6102516104d6565b73ffffffffffffffffffffffffffffffffffffffff1661026f6102d1565b73ffffffffffffffffffffffffffffffffffffffff16146102c5576040517f08c379a00000000000000000000000000000000000000000000000000000000081526004016102bc906107db565b60405180910390fd5b6102cf60006104de565b565b60008060009054906101000a900473ffffffffffffffffffffffffffffffffffffffff16905090565b3373ffffffffffffffffffffffffffffffffffffffff16600160009054906101000a900473ffffffffffffffffffffffffffffffffffffffff1673ffffffffffffffffffffffffffffffffffffffff161461038a576040517f08c379a0000000000000000000000000000000000000000000000000000000008152600401610381906107fb565b60405180910390fd5b600061044d9050505050565b6000806103a16105a2565b905060006103ba612710836105f290919063ffffffff16565b905080600460006101000a81548161ffff021916908361ffff160217905550505090565b6103e66104d6565b73ffffffffffffffffffffffffffffffffffffffff166104046102d1565b73ffffffffffffffffffffffffffffffffffffffff161461045a576040517f08c379a0000000000000000000000000000000000000000000000000000000008152600401610451906107db565b60405180910390fd5b600073ffffffffffffffffffffffffffffffffffffffff168173ffffffffffffffffffffffffffffffffffffffff1614156104ca576040517f08c379a00000000000000000000000000000000000000000000000000000000081526004016104c1906107bb565b60405180910390fd5b6104d3816104de565b50565b600033905090565b60008060009054906101000a900473ffffffffffffffffffffffffffffffffffffffff169050816000806101000a81548173ffffffffffffffffffffffffffffffffffffffff021916908373ffffffffffffffffffffffffffffffffffffffff1602179055508173ffffffffffffffffffffffffffffffffffffffff168173ffffffffffffffffffffffffffffffffffffffff167f8be0079c531659141344cd1fd0a4f28419497f9722a3daafe3b4186f6b6457e060405160405180910390a35050565b6000806001436105b29190610847565b40336003546040516020016105c993929190610763565b6040516020818303038152906040528051906020012060001c9050806003819055508091505090565b6000818361060091906108f9565b905092915050565b60008135905061061781610a36565b92915050565b60008135905061062c81610a4d565b92915050565b60006020828403121561064457600080fd5b600061065284828501610608565b91505092915050565b6000806040838503121561066e57600080fd5b600061067c8582860161061d565b925050602061068d85828601610608565b9150509250929050565b6106a08161087b565b82525050565b6106b76106b28261087b565b6108c1565b82525050565b6106ce6106c98261088d565b6108d3565b82525050565b60006106e1602683610836565b91506106ec82610995565b604082019050919050565b6000610704602083610836565b915061070f826109e4565b602082019050919050565b6000610727601e83610836565b915061073282610a0d565b602082019050919050565b610746816108b7565b82525050565b61075d610758826108b7565b6108ef565b82525050565b600061076f82866106bd565b60208201915061077f82856106a6565b60148201915061078f828461074c565b602082019150819050949350505050565b60006020820190506107b56000830184610697565b92915050565b600060208201905081810360008301526107d4816106d4565b9050919050565b600060208201905081810360008301526107f4816106f7565b9050919050565b600060208201905081810360008301526108148161071a565b9050919050565b6000602082019050610830600083018461073d565b92915050565b600082825260208201905092915050565b6000610852826108b7565b915061085d836108b7565b9250828210156108705761086f61092a565b5b828203905092915050565b600061088682610897565b9050919050565b6000819050919050565b600073ffffffffffffffffffffffffffffffffffffffff82169050919050565b6000819050919050565b60006108cc826108dd565b9050919050565b6000819050919050565b60006108e882610988565b9050919050565b6000819050919050565b6000610904826108b7565b915061090f836108b7565b92508261091f5761091e610959565b5b828206905092915050565b7f4e487b7100000000000000000000000000000000000000000000000000000000600052601160045260246000fd5b7f4e487b7100000000000000000000000000000000000000000000000000000000600052601260045260246000fd5b60008160601b9050919050565b7f4f776e61626c653a206e6577206f776e657220697320746865207a65726f206160008201527f6464726573730000000000000000000000000000000000000000000000000000602082015250565b7f4f776e61626c653a2063616c6c6572206973206e6f7420746865206f776e6572600082015250565b7f63616c6c6572206973206e6f74207468652065676720636f6e74726163740000600082015250565b610a3f8161087b565b8114610a4a57600080fd5b50565b610a56816108b7565b8114610a6157600080fd5b5056fea26469706673582212205c3ee081ba3af55eb35331e13ce3942b6b7f6e371b7ad531d574fbfd0d11d96964736f6c63430008030033",
  "immutableReferences": {},
  "source": "// SPDX-License-Identifier: MIT\n\npragma solidity ^0.8.0;\n\nimport \"@openzeppelin/contracts/utils/math/SafeMath.sol\";\nimport \"@openzeppelin/contracts/access/Ownable.sol\";\nimport \"@openzeppelin/contracts/utils/Strings.sol\";\n\nimport \"./IFactoryERC721.sol\";\n// import \"./Creature.sol\";\n// import \"./CreatureLootBox.sol\";\n\n// contract DuckFactory is FactoryERC721, Ownable {\ncontract DuckFactory is Ownable {\n    using SafeMath for uint256;\n    using Strings for string;\n    uint256 constant INVERSE_BASIS_POINT = 10000;\n    address private _eggAddress;\n    address private _duckAddress;\n    uint256 private _seed;\n    uint16 private _rand;\n\n    constructor() {\n        _seed = 1;\n    }\n\n    /**\n     * @dev Throws if called by any account other than the egg contract.\n     */\n    modifier onlyEggContract() {\n        require(_eggAddress == msg.sender, \"caller is not the egg contract\");\n        _;\n    }\n\n    /**\n     * @dev setup egg contract address for privileged access\n     * Can only be called by the current owner.\n     */\n    function setEggContract(address egg_) external onlyOwner {\n        _eggAddress = egg_;\n    }\n\n\n    /**\n    * @dev egg hatch to duck, this will mint a new duckNFT to user(`toAddress_`)\n    * Can only be called by the current owner.\n    */\n    function mint(uint256 eggId_, address toAddress_) external onlyEggContract {\n        // 1.get random unmber\n        uint duckId = 1101;\n        // 2.invoke duckNFT to mint/transfer NFT to user\n        // hatchDuck(toAddress_, duckId);\n    }\n\n    function pickRandom() public returns (uint256) {\n        uint256 rand = _random();\n        uint16 value = uint16(rand.mod(INVERSE_BASIS_POINT));\n        _rand = value;\n    }\n\n    function getRand() public view returns (uint256) {\n        return _rand;\n    }\n\n    /**\n    * @dev Pseudo-random number generator\n    */\n    function _random() internal returns (uint256) {\n        uint256 random = uint256(keccak256(abi.encodePacked(blockhash(block.number - 1), msg.sender, _seed)));\n        _seed = random;\n        return random;\n    }\n\n    function getSeed() public view returns (uint256) {\n        return _seed;\n    }\n}",
  "sourcePath": "/Users/jack/Documents/GitHub/NFT/contracts/loot-box-duck-nft/contracts/DuckFactory.sol",
  "compiler": {
    "name": "solc",
    "version": "0.8.3+commit.8d00100c.Emscripten.clang"
  },
  "schemaVersion": "3.4.0",
  "updatedAt": "2021-09-06T13:43:38.919Z",
  "devdoc": {
    "kind": "dev",
    "methods": {
      "mint(uint256,address)": {
        "details": "egg hatch to duck, this will mint a new duckNFT to user(`toAddress_`) Can only be called by the current owner."
      },
      "owner()": {
        "details": "Returns the address of the current owner."
      },
      "renounceOwnership()": {
        "details": "Leaves the contract without owner. It will not be possible to call `onlyOwner` functions anymore. Can only be called by the current owner. NOTE: Renouncing ownership will leave the contract without an owner, thereby removing any functionality that is only available to the owner."
      },
      "setEggContract(address)": {
        "details": "setup egg contract address for privileged access Can only be called by the current owner."
      },
      "transferOwnership(address)": {
        "details": "Transfers ownership of the contract to a new account (`newOwner`). Can only be called by the current owner."
      }
    },
    "version": 1
  },
  "userdoc": {
    "kind": "user",
    "methods": {},
    "version": 1
  }
}