{
  "contractName": "DuckNFT",
  "abi": [
    {
      "inputs": [],
      "stateMutability": "nonpayable",
      "type": "constructor"
    },
    {
      "anonymous": false,
      "inputs": [
        {
          "indexed": true,
          "internalType": "address",
          "name": "owner",
          "type": "address"
        },
        {
          "indexed": true,
          "internalType": "address",
          "name": "approved",
          "type": "address"
        },
        {
          "indexed": true,
          "internalType": "uint256",
          "name": "tokenId",
          "type": "uint256"
        }
      ],
      "name": "Approval",
      "type": "event"
    },
    {
      "anonymous": false,
      "inputs": [
        {
          "indexed": true,
          "internalType": "address",
          "name": "owner",
          "type": "address"
        },
        {
          "indexed": true,
          "internalType": "address",
          "name": "operator",
          "type": "address"
        },
        {
          "indexed": false,
          "internalType": "bool",
          "name": "approved",
          "type": "bool"
        }
      ],
      "name": "ApprovalForAll",
      "type": "event"
    },
    {
      "anonymous": false,
      "inputs": [
        {
          "indexed": true,
          "internalType": "address",
          "name": "previousOwner",
          "type": "address"
        },
        {
          "indexed": true,
          "internalType": "address",
          "name": "newOwner",
          "type": "address"
        }
      ],
      "name": "OwnershipTransferred",
      "type": "event"
    },
    {
      "anonymous": false,
      "inputs": [
        {
          "indexed": true,
          "internalType": "address",
          "name": "from",
          "type": "address"
        },
        {
          "indexed": true,
          "internalType": "address",
          "name": "to",
          "type": "address"
        },
        {
          "indexed": true,
          "internalType": "uint256",
          "name": "tokenId",
          "type": "uint256"
        }
      ],
      "name": "Transfer",
      "type": "event"
    },
    {
      "inputs": [
        {
          "internalType": "address",
          "name": "to",
          "type": "address"
        },
        {
          "internalType": "uint256",
          "name": "tokenId",
          "type": "uint256"
        }
      ],
      "name": "approve",
      "outputs": [],
      "stateMutability": "nonpayable",
      "type": "function"
    },
    {
      "inputs": [
        {
          "internalType": "address",
          "name": "owner",
          "type": "address"
        }
      ],
      "name": "balanceOf",
      "outputs": [
        {
          "internalType": "uint256",
          "name": "",
          "type": "uint256"
        }
      ],
      "stateMutability": "view",
      "type": "function"
    },
    {
      "inputs": [
        {
          "internalType": "uint256",
          "name": "tokenId",
          "type": "uint256"
        }
      ],
      "name": "getApproved",
      "outputs": [
        {
          "internalType": "address",
          "name": "",
          "type": "address"
        }
      ],
      "stateMutability": "view",
      "type": "function"
    },
    {
      "inputs": [
        {
          "internalType": "address",
          "name": "owner",
          "type": "address"
        },
        {
          "internalType": "address",
          "name": "operator",
          "type": "address"
        }
      ],
      "name": "isApprovedForAll",
      "outputs": [
        {
          "internalType": "bool",
          "name": "",
          "type": "bool"
        }
      ],
      "stateMutability": "view",
      "type": "function"
    },
    {
      "inputs": [],
      "name": "name",
      "outputs": [
        {
          "internalType": "string",
          "name": "",
          "type": "string"
        }
      ],
      "stateMutability": "view",
      "type": "function"
    },
    {
      "inputs": [],
      "name": "owner",
      "outputs": [
        {
          "internalType": "address",
          "name": "",
          "type": "address"
        }
      ],
      "stateMutability": "view",
      "type": "function"
    },
    {
      "inputs": [
        {
          "internalType": "uint256",
          "name": "tokenId",
          "type": "uint256"
        }
      ],
      "name": "ownerOf",
      "outputs": [
        {
          "internalType": "address",
          "name": "",
          "type": "address"
        }
      ],
      "stateMutability": "view",
      "type": "function"
    },
    {
      "inputs": [],
      "name": "renounceOwnership",
      "outputs": [],
      "stateMutability": "nonpayable",
      "type": "function"
    },
    {
      "inputs": [
        {
          "internalType": "address",
          "name": "from",
          "type": "address"
        },
        {
          "internalType": "address",
          "name": "to",
          "type": "address"
        },
        {
          "internalType": "uint256",
          "name": "tokenId",
          "type": "uint256"
        }
      ],
      "name": "safeTransferFrom",
      "outputs": [],
      "stateMutability": "nonpayable",
      "type": "function"
    },
    {
      "inputs": [
        {
          "internalType": "address",
          "name": "from",
          "type": "address"
        },
        {
          "internalType": "address",
          "name": "to",
          "type": "address"
        },
        {
          "internalType": "uint256",
          "name": "tokenId",
          "type": "uint256"
        },
        {
          "internalType": "bytes",
          "name": "_data",
          "type": "bytes"
        }
      ],
      "name": "safeTransferFrom",
      "outputs": [],
      "stateMutability": "nonpayable",
      "type": "function"
    },
    {
      "inputs": [
        {
          "internalType": "address",
          "name": "operator",
          "type": "address"
        },
        {
          "internalType": "bool",
          "name": "approved",
          "type": "bool"
        }
      ],
      "name": "setApprovalForAll",
      "outputs": [],
      "stateMutability": "nonpayable",
      "type": "function"
    },
    {
      "inputs": [
        {
          "internalType": "bytes4",
          "name": "interfaceId",
          "type": "bytes4"
        }
      ],
      "name": "supportsInterface",
      "outputs": [
        {
          "internalType": "bool",
          "name": "",
          "type": "bool"
        }
      ],
      "stateMutability": "view",
      "type": "function"
    },
    {
      "inputs": [],
      "name": "symbol",
      "outputs": [
        {
          "internalType": "string",
          "name": "",
          "type": "string"
        }
      ],
      "stateMutability": "view",
      "type": "function"
    },
    {
      "inputs": [
        {
          "internalType": "uint256",
          "name": "tokenId",
          "type": "uint256"
        }
      ],
      "name": "tokenURI",
      "outputs": [
        {
          "internalType": "string",
          "name": "",
          "type": "string"
        }
      ],
      "stateMutability": "view",
      "type": "function"
    },
    {
      "inputs": [
        {
          "internalType": "address",
          "name": "from",
          "type": "address"
        },
        {
          "internalType": "address",
          "name": "to",
          "type": "address"
        },
        {
          "internalType": "uint256",
          "name": "tokenId",
          "type": "uint256"
        }
      ],
      "name": "transferFrom",
      "outputs": [],
      "stateMutability": "nonpayable",
      "type": "function"
    },
    {
      "inputs": [
        {
          "internalType": "address",
          "name": "newOwner",
          "type": "address"
        }
      ],
      "name": "transferOwnership",
      "outputs": [],
      "stateMutability": "nonpayable",
      "type": "function"
    },
    {
      "inputs": [
        {
          "internalType": "address",
          "name": "factory_",
          "type": "address"
        }
      ],
      "name": "setDuckFactoryContract",
      "outputs": [],
      "stateMutability": "nonpayable",
      "type": "function"
    },
    {
      "inputs": [
        {
          "internalType": "string",
          "name": "uri_",
          "type": "string"
        }
      ],
      "name": "setBaseURI",
      "outputs": [],
      "stateMutability": "nonpayable",
      "type": "function"
    },
    {
      "inputs": [
        {
          "internalType": "address",
          "name": "to_",
          "type": "address"
        },
        {
          "internalType": "uint256",
          "name": "tokenId_",
          "type": "uint256"
        }
      ],
      "name": "mintToken",
      "outputs": [],
      "stateMutability": "nonpayable",
      "type": "function"
    },
    {
      "inputs": [
        {
          "internalType": "address",
          "name": "to_",
          "type": "address"
        },
        {
          "internalType": "uint256",
          "name": "tokenId_",
          "type": "uint256"
        }
      ],
      "name": "hatchDuck",
      "outputs": [],
      "stateMutability": "nonpayable",
      "type": "function"
    }
  ],
  "bytecode": "0x60806040523480156200001157600080fd5b506040518060400160405280600781526020017f4455434b4e4654000000000000000000000000000000000000000000000000008152506040518060400160405280600381526020017f444b540000000000000000000000000000000000000000000000000000000000815250816000908051906020019062000096929190620001d8565b508060019080519060200190620000af929190620001d8565b505050620000d2620000c66200010a60201b60201c565b6200011260201b60201c565b60405180608001604052806051815260200162003322605191396007908051906020019062000103929190620001d8565b50620002ed565b600033905090565b6000600660009054906101000a900473ffffffffffffffffffffffffffffffffffffffff16905081600660006101000a81548173ffffffffffffffffffffffffffffffffffffffff021916908373ffffffffffffffffffffffffffffffffffffffff1602179055508173ffffffffffffffffffffffffffffffffffffffff168173ffffffffffffffffffffffffffffffffffffffff167f8be0079c531659141344cd1fd0a4f28419497f9722a3daafe3b4186f6b6457e060405160405180910390a35050565b828054620001e69062000288565b90600052602060002090601f0160209004810192826200020a576000855562000256565b82601f106200022557805160ff191683800117855562000256565b8280016001018555821562000256579182015b828111156200025557825182559160200191906001019062000238565b5b50905062000265919062000269565b5090565b5b80821115620002845760008160009055506001016200026a565b5090565b60006002820490506001821680620002a157607f821691505b60208210811415620002b857620002b7620002be565b5b50919050565b7f4e487b7100000000000000000000000000000000000000000000000000000000600052602260045260246000fd5b61302580620002fd6000396000f3fe608060405234801561001057600080fd5b506004361061012c5760003560e01c8063715018a6116100ad578063b88d4fde11610071578063b88d4fde14610319578063c414b24c14610335578063c87b56dd14610351578063e985e9c514610381578063f2fde38b146103b15761012c565b8063715018a61461029b57806379c65068146102a55780638da5cb5b146102c157806395d89b41146102df578063a22cb465146102fd5761012c565b806342842e0e116100f457806342842e0e146101e757806355f804b3146102035780635e00cb3d1461021f5780636352211e1461023b57806370a082311461026b5761012c565b806301ffc9a71461013157806306fdde0314610161578063081812fc1461017f578063095ea7b3146101af57806323b872dd146101cb575b600080fd5b61014b6004803603810190610146919061204b565b6103cd565b60405161015891906124b5565b60405180910390f35b6101696104af565b60405161017691906124d0565b60405180910390f35b610199600480360381019061019491906120de565b610541565b6040516101a6919061244e565b60405180910390f35b6101c960048036038101906101c4919061200f565b6105c6565b005b6101e560048036038101906101e09190611f09565b6106de565b005b61020160048036038101906101fc9190611f09565b61073e565b005b61021d6004803603810190610218919061209d565b61075e565b005b6102396004803603810190610234919061200f565b6107f4565b005b610255600480360381019061025091906120de565b610892565b604051610262919061244e565b60405180910390f35b61028560048036038101906102809190611ea4565b610944565b6040516102929190612712565b60405180910390f35b6102a36109fc565b005b6102bf60048036038101906102ba919061200f565b610a84565b005b6102c9610b0e565b6040516102d6919061244e565b60405180910390f35b6102e7610b38565b6040516102f491906124d0565b60405180910390f35b61031760048036038101906103129190611fd3565b610bca565b005b610333600480360381019061032e9190611f58565b610d4b565b005b61034f600480360381019061034a9190611ea4565b610dad565b005b61036b600480360381019061036691906120de565b610e6d565b60405161037891906124d0565b60405180910390f35b61039b60048036038101906103969190611ecd565b610f14565b6040516103a891906124b5565b60405180910390f35b6103cb60048036038101906103c69190611ea4565b610fa8565b005b60007f80ac58cd000000000000000000000000000000000000000000000000000000007bffffffffffffffffffffffffffffffffffffffffffffffffffffffff1916827bffffffffffffffffffffffffffffffffffffffffffffffffffffffff1916148061049857507f5b5e139f000000000000000000000000000000000000000000000000000000007bffffffffffffffffffffffffffffffffffffffffffffffffffffffff1916827bffffffffffffffffffffffffffffffffffffffffffffffffffffffff1916145b806104a857506104a7826110a0565b5b9050919050565b6060600080546104be90612968565b80601f01602080910402602001604051908101604052809291908181526020018280546104ea90612968565b80156105375780601f1061050c57610100808354040283529160200191610537565b820191906000526020600020905b81548152906001019060200180831161051a57829003601f168201915b5050505050905090565b600061054c8261110a565b61058b576040517f08c379a000000000000000000000000000000000000000000000000000000000815260040161058290612632565b60405180910390fd5b6004600083815260200190815260200160002060009054906101000a900473ffffffffffffffffffffffffffffffffffffffff169050919050565b60006105d182610892565b90508073ffffffffffffffffffffffffffffffffffffffff168373ffffffffffffffffffffffffffffffffffffffff161415610642576040517f08c379a0000000000000000000000000000000000000000000000000000000008152600401610639906126d2565b60405180910390fd5b8073ffffffffffffffffffffffffffffffffffffffff16610661611176565b73ffffffffffffffffffffffffffffffffffffffff161480610690575061068f8161068a611176565b610f14565b5b6106cf576040517f08c379a00000000000000000000000000000000000000000000000000000000081526004016106c6906125b2565b60405180910390fd5b6106d9838361117e565b505050565b6106ef6106e9611176565b82611237565b61072e576040517f08c379a0000000000000000000000000000000000000000000000000000000008152600401610725906126f2565b60405180910390fd5b610739838383611315565b505050565b61075983838360405180602001604052806000815250610d4b565b505050565b610766611176565b73ffffffffffffffffffffffffffffffffffffffff16610784610b0e565b73ffffffffffffffffffffffffffffffffffffffff16146107da576040517f08c379a00000000000000000000000000000000000000000000000000000000081526004016107d190612652565b60405180910390fd5b80600790805190602001906107f0929190611cc8565b5050565b3373ffffffffffffffffffffffffffffffffffffffff16600860009054906101000a900473ffffffffffffffffffffffffffffffffffffffff1673ffffffffffffffffffffffffffffffffffffffff1614610884576040517f08c379a000000000000000000000000000000000000000000000000000000000815260040161087b90612692565b60405180910390fd5b61088e8282611571565b5050565b6000806002600084815260200190815260200160002060009054906101000a900473ffffffffffffffffffffffffffffffffffffffff169050600073ffffffffffffffffffffffffffffffffffffffff168173ffffffffffffffffffffffffffffffffffffffff16141561093b576040517f08c379a0000000000000000000000000000000000000000000000000000000008152600401610932906125f2565b60405180910390fd5b80915050919050565b60008073ffffffffffffffffffffffffffffffffffffffff168273ffffffffffffffffffffffffffffffffffffffff1614156109b5576040517f08c379a00000000000000000000000000000000000000000000000000000000081526004016109ac906125d2565b60405180910390fd5b600360008373ffffffffffffffffffffffffffffffffffffffff1673ffffffffffffffffffffffffffffffffffffffff168152602001908152602001600020549050919050565b610a04611176565b73ffffffffffffffffffffffffffffffffffffffff16610a22610b0e565b73ffffffffffffffffffffffffffffffffffffffff1614610a78576040517f08c379a0000000000000000000000000000000000000000000000000000000008152600401610a6f90612652565b60405180910390fd5b610a82600061158f565b565b610a8c611176565b73ffffffffffffffffffffffffffffffffffffffff16610aaa610b0e565b73ffffffffffffffffffffffffffffffffffffffff1614610b00576040517f08c379a0000000000000000000000000000000000000000000000000000000008152600401610af790612652565b60405180910390fd5b610b0a8282611571565b5050565b6000600660009054906101000a900473ffffffffffffffffffffffffffffffffffffffff16905090565b606060018054610b4790612968565b80601f0160208091040260200160405190810160405280929190818152602001828054610b7390612968565b8015610bc05780601f10610b9557610100808354040283529160200191610bc0565b820191906000526020600020905b815481529060010190602001808311610ba357829003601f168201915b5050505050905090565b610bd2611176565b73ffffffffffffffffffffffffffffffffffffffff168273ffffffffffffffffffffffffffffffffffffffff161415610c40576040517f08c379a0000000000000000000000000000000000000000000000000000000008152600401610c3790612572565b60405180910390fd5b8060056000610c4d611176565b73ffffffffffffffffffffffffffffffffffffffff1673ffffffffffffffffffffffffffffffffffffffff16815260200190815260200160002060008473ffffffffffffffffffffffffffffffffffffffff1673ffffffffffffffffffffffffffffffffffffffff16815260200190815260200160002060006101000a81548160ff0219169083151502179055508173ffffffffffffffffffffffffffffffffffffffff16610cfa611176565b73ffffffffffffffffffffffffffffffffffffffff167f17307eab39ab6107e8899845ad3d59bd9653f200f220920489ca2b5937696c3183604051610d3f91906124b5565b60405180910390a35050565b610d5c610d56611176565b83611237565b610d9b576040517f08c379a0000000000000000000000000000000000000000000000000000000008152600401610d92906126f2565b60405180910390fd5b610da784848484611655565b50505050565b610db5611176565b73ffffffffffffffffffffffffffffffffffffffff16610dd3610b0e565b73ffffffffffffffffffffffffffffffffffffffff1614610e29576040517f08c379a0000000000000000000000000000000000000000000000000000000008152600401610e2090612652565b60405180910390fd5b80600860006101000a81548173ffffffffffffffffffffffffffffffffffffffff021916908373ffffffffffffffffffffffffffffffffffffffff16021790555050565b6060610e788261110a565b610eb7576040517f08c379a0000000000000000000000000000000000000000000000000000000008152600401610eae906126b2565b60405180910390fd5b6000610ec16116b1565b90506000815111610ee15760405180602001604052806000815250610f0c565b80610eeb84611743565b604051602001610efc92919061242a565b6040516020818303038152906040525b915050919050565b6000600560008473ffffffffffffffffffffffffffffffffffffffff1673ffffffffffffffffffffffffffffffffffffffff16815260200190815260200160002060008373ffffffffffffffffffffffffffffffffffffffff1673ffffffffffffffffffffffffffffffffffffffff16815260200190815260200160002060009054906101000a900460ff16905092915050565b610fb0611176565b73ffffffffffffffffffffffffffffffffffffffff16610fce610b0e565b73ffffffffffffffffffffffffffffffffffffffff1614611024576040517f08c379a000000000000000000000000000000000000000000000000000000000815260040161101b90612652565b60405180910390fd5b600073ffffffffffffffffffffffffffffffffffffffff168173ffffffffffffffffffffffffffffffffffffffff161415611094576040517f08c379a000000000000000000000000000000000000000000000000000000000815260040161108b90612512565b60405180910390fd5b61109d8161158f565b50565b60007f01ffc9a7000000000000000000000000000000000000000000000000000000007bffffffffffffffffffffffffffffffffffffffffffffffffffffffff1916827bffffffffffffffffffffffffffffffffffffffffffffffffffffffff1916149050919050565b60008073ffffffffffffffffffffffffffffffffffffffff166002600084815260200190815260200160002060009054906101000a900473ffffffffffffffffffffffffffffffffffffffff1673ffffffffffffffffffffffffffffffffffffffff1614159050919050565b600033905090565b816004600083815260200190815260200160002060006101000a81548173ffffffffffffffffffffffffffffffffffffffff021916908373ffffffffffffffffffffffffffffffffffffffff160217905550808273ffffffffffffffffffffffffffffffffffffffff166111f183610892565b73ffffffffffffffffffffffffffffffffffffffff167f8c5be1e5ebec7d5bd14f71427d1e84f3dd0314c0f7b2291e5b200ac8c7c3b92560405160405180910390a45050565b60006112428261110a565b611281576040517f08c379a000000000000000000000000000000000000000000000000000000000815260040161127890612592565b60405180910390fd5b600061128c83610892565b90508073ffffffffffffffffffffffffffffffffffffffff168473ffffffffffffffffffffffffffffffffffffffff1614806112fb57508373ffffffffffffffffffffffffffffffffffffffff166112e384610541565b73ffffffffffffffffffffffffffffffffffffffff16145b8061130c575061130b8185610f14565b5b91505092915050565b8273ffffffffffffffffffffffffffffffffffffffff1661133582610892565b73ffffffffffffffffffffffffffffffffffffffff161461138b576040517f08c379a000000000000000000000000000000000000000000000000000000000815260040161138290612672565b60405180910390fd5b600073ffffffffffffffffffffffffffffffffffffffff168273ffffffffffffffffffffffffffffffffffffffff1614156113fb576040517f08c379a00000000000000000000000000000000000000000000000000000000081526004016113f290612552565b60405180910390fd5b6114068383836118f0565b61141160008261117e565b6001600360008573ffffffffffffffffffffffffffffffffffffffff1673ffffffffffffffffffffffffffffffffffffffff1681526020019081526020016000206000828254611461919061287e565b925050819055506001600360008473ffffffffffffffffffffffffffffffffffffffff1673ffffffffffffffffffffffffffffffffffffffff16815260200190815260200160002060008282546114b891906127f7565b92505081905550816002600083815260200190815260200160002060006101000a81548173ffffffffffffffffffffffffffffffffffffffff021916908373ffffffffffffffffffffffffffffffffffffffff160217905550808273ffffffffffffffffffffffffffffffffffffffff168473ffffffffffffffffffffffffffffffffffffffff167fddf252ad1be2c89b69c2b068fc378daa952ba7f163c4a11628f55a4df523b3ef60405160405180910390a4505050565b61158b8282604051806020016040528060008152506118f5565b5050565b6000600660009054906101000a900473ffffffffffffffffffffffffffffffffffffffff16905081600660006101000a81548173ffffffffffffffffffffffffffffffffffffffff021916908373ffffffffffffffffffffffffffffffffffffffff1602179055508173ffffffffffffffffffffffffffffffffffffffff168173ffffffffffffffffffffffffffffffffffffffff167f8be0079c531659141344cd1fd0a4f28419497f9722a3daafe3b4186f6b6457e060405160405180910390a35050565b611660848484611315565b61166c84848484611950565b6116ab576040517f08c379a00000000000000000000000000000000000000000000000000000000081526004016116a2906124f2565b60405180910390fd5b50505050565b6060600780546116c090612968565b80601f01602080910402602001604051908101604052809291908181526020018280546116ec90612968565b80156117395780601f1061170e57610100808354040283529160200191611739565b820191906000526020600020905b81548152906001019060200180831161171c57829003601f168201915b5050505050905090565b6060600082141561178b576040518060400160405280600181526020017f300000000000000000000000000000000000000000000000000000000000000081525090506118eb565b600082905060005b600082146117bd5780806117a6906129cb565b915050600a826117b6919061284d565b9150611793565b60008167ffffffffffffffff8111156117ff577f4e487b7100000000000000000000000000000000000000000000000000000000600052604160045260246000fd5b6040519080825280601f01601f1916602001820160405280156118315781602001600182028036833780820191505090505b5090505b600085146118e45760018261184a919061287e565b9150600a856118599190612a14565b603061186591906127f7565b60f81b8183815181106118a1577f4e487b7100000000000000000000000000000000000000000000000000000000600052603260045260246000fd5b60200101907effffffffffffffffffffffffffffffffffffffffffffffffffffffffffffff1916908160001a905350600a856118dd919061284d565b9450611835565b8093505050505b919050565b505050565b6118ff8383611ae7565b61190c6000848484611950565b61194b576040517f08c379a0000000000000000000000000000000000000000000000000000000008152600401611942906124f2565b60405180910390fd5b505050565b60006119718473ffffffffffffffffffffffffffffffffffffffff16611cb5565b15611ada578373ffffffffffffffffffffffffffffffffffffffff1663150b7a0261199a611176565b8786866040518563ffffffff1660e01b81526004016119bc9493929190612469565b602060405180830381600087803b1580156119d657600080fd5b505af1925050508015611a0757506040513d601f19601f82011682018060405250810190611a049190612074565b60015b611a8a573d8060008114611a37576040519150601f19603f3d011682016040523d82523d6000602084013e611a3c565b606091505b50600081511415611a82576040517f08c379a0000000000000000000000000000000000000000000000000000000008152600401611a79906124f2565b60405180910390fd5b805181602001fd5b63150b7a0260e01b7bffffffffffffffffffffffffffffffffffffffffffffffffffffffff1916817bffffffffffffffffffffffffffffffffffffffffffffffffffffffff191614915050611adf565b600190505b949350505050565b600073ffffffffffffffffffffffffffffffffffffffff168273ffffffffffffffffffffffffffffffffffffffff161415611b57576040517f08c379a0000000000000000000000000000000000000000000000000000000008152600401611b4e90612612565b60405180910390fd5b611b608161110a565b15611ba0576040517f08c379a0000000000000000000000000000000000000000000000000000000008152600401611b9790612532565b60405180910390fd5b611bac600083836118f0565b6001600360008473ffffffffffffffffffffffffffffffffffffffff1673ffffffffffffffffffffffffffffffffffffffff1681526020019081526020016000206000828254611bfc91906127f7565b92505081905550816002600083815260200190815260200160002060006101000a81548173ffffffffffffffffffffffffffffffffffffffff021916908373ffffffffffffffffffffffffffffffffffffffff160217905550808273ffffffffffffffffffffffffffffffffffffffff16600073ffffffffffffffffffffffffffffffffffffffff167fddf252ad1be2c89b69c2b068fc378daa952ba7f163c4a11628f55a4df523b3ef60405160405180910390a45050565b600080823b905060008111915050919050565b828054611cd490612968565b90600052602060002090601f016020900481019282611cf65760008555611d3d565b82601f10611d0f57805160ff1916838001178555611d3d565b82800160010185558215611d3d579182015b82811115611d3c578251825591602001919060010190611d21565b5b509050611d4a9190611d4e565b5090565b5b80821115611d67576000816000905550600101611d4f565b5090565b6000611d7e611d7984612752565b61272d565b905082815260208101848484011115611d9657600080fd5b611da1848285612926565b509392505050565b6000611dbc611db784612783565b61272d565b905082815260208101848484011115611dd457600080fd5b611ddf848285612926565b509392505050565b600081359050611df681612f93565b92915050565b600081359050611e0b81612faa565b92915050565b600081359050611e2081612fc1565b92915050565b600081519050611e3581612fc1565b92915050565b600082601f830112611e4c57600080fd5b8135611e5c848260208601611d6b565b91505092915050565b600082601f830112611e7657600080fd5b8135611e86848260208601611da9565b91505092915050565b600081359050611e9e81612fd8565b92915050565b600060208284031215611eb657600080fd5b6000611ec484828501611de7565b91505092915050565b60008060408385031215611ee057600080fd5b6000611eee85828601611de7565b9250506020611eff85828601611de7565b9150509250929050565b600080600060608486031215611f1e57600080fd5b6000611f2c86828701611de7565b9350506020611f3d86828701611de7565b9250506040611f4e86828701611e8f565b9150509250925092565b60008060008060808587031215611f6e57600080fd5b6000611f7c87828801611de7565b9450506020611f8d87828801611de7565b9350506040611f9e87828801611e8f565b925050606085013567ffffffffffffffff811115611fbb57600080fd5b611fc787828801611e3b565b91505092959194509250565b60008060408385031215611fe657600080fd5b6000611ff485828601611de7565b925050602061200585828601611dfc565b9150509250929050565b6000806040838503121561202257600080fd5b600061203085828601611de7565b925050602061204185828601611e8f565b9150509250929050565b60006020828403121561205d57600080fd5b600061206b84828501611e11565b91505092915050565b60006020828403121561208657600080fd5b600061209484828501611e26565b91505092915050565b6000602082840312156120af57600080fd5b600082013567ffffffffffffffff8111156120c957600080fd5b6120d584828501611e65565b91505092915050565b6000602082840312156120f057600080fd5b60006120fe84828501611e8f565b91505092915050565b612110816128b2565b82525050565b61211f816128c4565b82525050565b6000612130826127b4565b61213a81856127ca565b935061214a818560208601612935565b61215381612b01565b840191505092915050565b6000612169826127bf565b61217381856127db565b9350612183818560208601612935565b61218c81612b01565b840191505092915050565b60006121a2826127bf565b6121ac81856127ec565b93506121bc818560208601612935565b80840191505092915050565b60006121d56032836127db565b91506121e082612b12565b604082019050919050565b60006121f86026836127db565b915061220382612b61565b604082019050919050565b600061221b601c836127db565b915061222682612bb0565b602082019050919050565b600061223e6024836127db565b915061224982612bd9565b604082019050919050565b60006122616019836127db565b915061226c82612c28565b602082019050919050565b6000612284602c836127db565b915061228f82612c51565b604082019050919050565b60006122a76038836127db565b91506122b282612ca0565b604082019050919050565b60006122ca602a836127db565b91506122d582612cef565b604082019050919050565b60006122ed6029836127db565b91506122f882612d3e565b604082019050919050565b60006123106020836127db565b915061231b82612d8d565b602082019050919050565b6000612333602c836127db565b915061233e82612db6565b604082019050919050565b60006123566020836127db565b915061236182612e05565b602082019050919050565b60006123796029836127db565b915061238482612e2e565b604082019050919050565b600061239c601e836127db565b91506123a782612e7d565b602082019050919050565b60006123bf602f836127db565b91506123ca82612ea6565b604082019050919050565b60006123e26021836127db565b91506123ed82612ef5565b604082019050919050565b60006124056031836127db565b915061241082612f44565b604082019050919050565b6124248161291c565b82525050565b60006124368285612197565b91506124428284612197565b91508190509392505050565b60006020820190506124636000830184612107565b92915050565b600060808201905061247e6000830187612107565b61248b6020830186612107565b612498604083018561241b565b81810360608301526124aa8184612125565b905095945050505050565b60006020820190506124ca6000830184612116565b92915050565b600060208201905081810360008301526124ea818461215e565b905092915050565b6000602082019050818103600083015261250b816121c8565b9050919050565b6000602082019050818103600083015261252b816121eb565b9050919050565b6000602082019050818103600083015261254b8161220e565b9050919050565b6000602082019050818103600083015261256b81612231565b9050919050565b6000602082019050818103600083015261258b81612254565b9050919050565b600060208201905081810360008301526125ab81612277565b9050919050565b600060208201905081810360008301526125cb8161229a565b9050919050565b600060208201905081810360008301526125eb816122bd565b9050919050565b6000602082019050818103600083015261260b816122e0565b9050919050565b6000602082019050818103600083015261262b81612303565b9050919050565b6000602082019050818103600083015261264b81612326565b9050919050565b6000602082019050818103600083015261266b81612349565b9050919050565b6000602082019050818103600083015261268b8161236c565b9050919050565b600060208201905081810360008301526126ab8161238f565b9050919050565b600060208201905081810360008301526126cb816123b2565b9050919050565b600060208201905081810360008301526126eb816123d5565b9050919050565b6000602082019050818103600083015261270b816123f8565b9050919050565b6000602082019050612727600083018461241b565b92915050565b6000612737612748565b9050612743828261299a565b919050565b6000604051905090565b600067ffffffffffffffff82111561276d5761276c612ad2565b5b61277682612b01565b9050602081019050919050565b600067ffffffffffffffff82111561279e5761279d612ad2565b5b6127a782612b01565b9050602081019050919050565b600081519050919050565b600081519050919050565b600082825260208201905092915050565b600082825260208201905092915050565b600081905092915050565b60006128028261291c565b915061280d8361291c565b9250827fffffffffffffffffffffffffffffffffffffffffffffffffffffffffffffffff0382111561284257612841612a45565b5b828201905092915050565b60006128588261291c565b91506128638361291c565b92508261287357612872612a74565b5b828204905092915050565b60006128898261291c565b91506128948361291c565b9250828210156128a7576128a6612a45565b5b828203905092915050565b60006128bd826128fc565b9050919050565b60008115159050919050565b60007fffffffff0000000000000000000000000000000000000000000000000000000082169050919050565b600073ffffffffffffffffffffffffffffffffffffffff82169050919050565b6000819050919050565b82818337600083830152505050565b60005b83811015612953578082015181840152602081019050612938565b83811115612962576000848401525b50505050565b6000600282049050600182168061298057607f821691505b6020821081141561299457612993612aa3565b5b50919050565b6129a382612b01565b810181811067ffffffffffffffff821117156129c2576129c1612ad2565b5b80604052505050565b60006129d68261291c565b91507fffffffffffffffffffffffffffffffffffffffffffffffffffffffffffffffff821415612a0957612a08612a45565b5b600182019050919050565b6000612a1f8261291c565b9150612a2a8361291c565b925082612a3a57612a39612a74565b5b828206905092915050565b7f4e487b7100000000000000000000000000000000000000000000000000000000600052601160045260246000fd5b7f4e487b7100000000000000000000000000000000000000000000000000000000600052601260045260246000fd5b7f4e487b7100000000000000000000000000000000000000000000000000000000600052602260045260246000fd5b7f4e487b7100000000000000000000000000000000000000000000000000000000600052604160045260246000fd5b6000601f19601f8301169050919050565b7f4552433732313a207472616e7366657220746f206e6f6e20455243373231526560008201527f63656976657220696d706c656d656e7465720000000000000000000000000000602082015250565b7f4f776e61626c653a206e6577206f776e657220697320746865207a65726f206160008201527f6464726573730000000000000000000000000000000000000000000000000000602082015250565b7f4552433732313a20746f6b656e20616c7265616479206d696e74656400000000600082015250565b7f4552433732313a207472616e7366657220746f20746865207a65726f2061646460008201527f7265737300000000000000000000000000000000000000000000000000000000602082015250565b7f4552433732313a20617070726f766520746f2063616c6c657200000000000000600082015250565b7f4552433732313a206f70657261746f7220717565727920666f72206e6f6e657860008201527f697374656e7420746f6b656e0000000000000000000000000000000000000000602082015250565b7f4552433732313a20617070726f76652063616c6c6572206973206e6f74206f7760008201527f6e6572206e6f7220617070726f76656420666f7220616c6c0000000000000000602082015250565b7f4552433732313a2062616c616e636520717565727920666f7220746865207a6560008201527f726f206164647265737300000000000000000000000000000000000000000000602082015250565b7f4552433732313a206f776e657220717565727920666f72206e6f6e657869737460008201527f656e7420746f6b656e0000000000000000000000000000000000000000000000602082015250565b7f4552433732313a206d696e7420746f20746865207a65726f2061646472657373600082015250565b7f4552433732313a20617070726f76656420717565727920666f72206e6f6e657860008201527f697374656e7420746f6b656e0000000000000000000000000000000000000000602082015250565b7f4f776e61626c653a2063616c6c6572206973206e6f7420746865206f776e6572600082015250565b7f4552433732313a207472616e73666572206f6620746f6b656e2074686174206960008201527f73206e6f74206f776e0000000000000000000000000000000000000000000000602082015250565b7f63616c6c6572206973206e6f7420746865206475636b20666163746f72790000600082015250565b7f4552433732314d657461646174613a2055524920717565727920666f72206e6f60008201527f6e6578697374656e7420746f6b656e0000000000000000000000000000000000602082015250565b7f4552433732313a20617070726f76616c20746f2063757272656e74206f776e6560008201527f7200000000000000000000000000000000000000000000000000000000000000602082015250565b7f4552433732313a207472616e736665722063616c6c6572206973206e6f74206f60008201527f776e6572206e6f7220617070726f766564000000000000000000000000000000602082015250565b612f9c816128b2565b8114612fa757600080fd5b50565b612fb3816128c4565b8114612fbe57600080fd5b50565b612fca816128d0565b8114612fd557600080fd5b50565b612fe18161291c565b8114612fec57600080fd5b5056fea26469706673582212205a070772c7deeddeb3a9389d434b8d56d2f8932f8bda68fb35a7ffaccc5ed92764736f6c6343000803003368747470733a2f2f676174657761792e70696e6174612e636c6f75642f697066732f516d58764b364a36556f58755979625473437a73316972696a6332527954324a4879796d464e5a7a636351356d502f",
  "immutableReferences": {},
  "source": "// SPDX-License-Identifier: MIT\npragma solidity ^0.8.0;\n\nimport \"@openzeppelin/contracts/token/ERC721/ERC721.sol\";\nimport \"@openzeppelin/contracts/access/Ownable.sol\";\n\ncontract DuckNFT is ERC721, Ownable {\n    string private baseURI;\n    address private _duckFactoryAddress;\n\n    constructor() ERC721(\"DUCKNFT\", \"DKT\") {\n       baseURI = \"https://gateway.pinata.cloud/ipfs/QmXvK6J6UoXuYybTsCzs1irijc2RyT2JHyymFNZzccQ5mP/\";\n    }\n\n    /**\n     * @dev Throws if called by any account other than the duck factory contract.\n     */\n    modifier onlyDuckFactory() {\n        require(_duckFactoryAddress == msg.sender, \"caller is not the duck factory\");\n        _;\n    }\n\n    /**\n     * @dev setup duck factory contract address for privileged access\n     * Can only be called by the current owner.\n     */\n    function setDuckFactoryContract(address factory_) external onlyOwner {\n        _duckFactoryAddress = factory_;\n    }\n\n\n    function setBaseURI(string memory uri_) external onlyOwner {\n        baseURI = uri_;\n    }\n\n    function mintToken(address to_, uint256 tokenId_) external onlyOwner {\n        _safeMint(to_, tokenId_);\n    }\n\n    function _baseURI() internal view override returns (string memory) {\n        return baseURI;\n    }\n\n    function hatchDuck(address to_, uint256 tokenId_) external onlyDuckFactory {\n        //todo: should be pausedable\n        _safeMint(to_, tokenId_);\n    }\n\n}\n\n\n\n",
  "sourcePath": "/Users/jack/Documents/GitHub/NFT/contracts/loot-box-duck-nft/contracts/DuckNFT.sol",
  "compiler": {
    "name": "solc",
    "version": "0.8.3+commit.8d00100c.Emscripten.clang"
  },
  "schemaVersion": "3.4.0",
  "updatedAt": "2021-09-06T13:43:38.946Z",
  "devdoc": {
    "kind": "dev",
    "methods": {
      "approve(address,uint256)": {
        "details": "See {IERC721-approve}."
      },
      "balanceOf(address)": {
        "details": "See {IERC721-balanceOf}."
      },
      "getApproved(uint256)": {
        "details": "See {IERC721-getApproved}."
      },
      "isApprovedForAll(address,address)": {
        "details": "See {IERC721-isApprovedForAll}."
      },
      "name()": {
        "details": "See {IERC721Metadata-name}."
      },
      "owner()": {
        "details": "Returns the address of the current owner."
      },
      "ownerOf(uint256)": {
        "details": "See {IERC721-ownerOf}."
      },
      "renounceOwnership()": {
        "details": "Leaves the contract without owner. It will not be possible to call `onlyOwner` functions anymore. Can only be called by the current owner. NOTE: Renouncing ownership will leave the contract without an owner, thereby removing any functionality that is only available to the owner."
      },
      "safeTransferFrom(address,address,uint256)": {
        "details": "See {IERC721-safeTransferFrom}."
      },
      "safeTransferFrom(address,address,uint256,bytes)": {
        "details": "See {IERC721-safeTransferFrom}."
      },
      "setApprovalForAll(address,bool)": {
        "details": "See {IERC721-setApprovalForAll}."
      },
      "setDuckFactoryContract(address)": {
        "details": "setup duck factory contract address for privileged access Can only be called by the current owner."
      },
      "supportsInterface(bytes4)": {
        "details": "See {IERC165-supportsInterface}."
      },
      "symbol()": {
        "details": "See {IERC721Metadata-symbol}."
      },
      "tokenURI(uint256)": {
        "details": "See {IERC721Metadata-tokenURI}."
      },
      "transferFrom(address,address,uint256)": {
        "details": "See {IERC721-transferFrom}."
      },
      "transferOwnership(address)": {
        "details": "Transfers ownership of the contract to a new account (`newOwner`). Can only be called by the current owner."
      }
    },
    "version": 1
  },
  "userdoc": {
    "kind": "user",
    "methods": {},
    "version": 1
  }
}