{
  "contractName": "EggNFT",
  "abi": [
    {
      "inputs": [],
      "stateMutability": "nonpayable",
      "type": "constructor"
    },
    {
      "anonymous": false,
      "inputs": [
        {
          "indexed": true,
          "internalType": "address",
          "name": "owner",
          "type": "address"
        },
        {
          "indexed": true,
          "internalType": "address",
          "name": "approved",
          "type": "address"
        },
        {
          "indexed": true,
          "internalType": "uint256",
          "name": "tokenId",
          "type": "uint256"
        }
      ],
      "name": "Approval",
      "type": "event"
    },
    {
      "anonymous": false,
      "inputs": [
        {
          "indexed": true,
          "internalType": "address",
          "name": "owner",
          "type": "address"
        },
        {
          "indexed": true,
          "internalType": "address",
          "name": "operator",
          "type": "address"
        },
        {
          "indexed": false,
          "internalType": "bool",
          "name": "approved",
          "type": "bool"
        }
      ],
      "name": "ApprovalForAll",
      "type": "event"
    },
    {
      "anonymous": false,
      "inputs": [
        {
          "indexed": true,
          "internalType": "address",
          "name": "previousOwner",
          "type": "address"
        },
        {
          "indexed": true,
          "internalType": "address",
          "name": "newOwner",
          "type": "address"
        }
      ],
      "name": "OwnershipTransferred",
      "type": "event"
    },
    {
      "anonymous": false,
      "inputs": [
        {
          "indexed": true,
          "internalType": "address",
          "name": "from",
          "type": "address"
        },
        {
          "indexed": true,
          "internalType": "address",
          "name": "to",
          "type": "address"
        },
        {
          "indexed": true,
          "internalType": "uint256",
          "name": "tokenId",
          "type": "uint256"
        }
      ],
      "name": "Transfer",
      "type": "event"
    },
    {
      "inputs": [
        {
          "internalType": "address",
          "name": "to",
          "type": "address"
        },
        {
          "internalType": "uint256",
          "name": "tokenId",
          "type": "uint256"
        }
      ],
      "name": "approve",
      "outputs": [],
      "stateMutability": "nonpayable",
      "type": "function"
    },
    {
      "inputs": [
        {
          "internalType": "address",
          "name": "owner",
          "type": "address"
        }
      ],
      "name": "balanceOf",
      "outputs": [
        {
          "internalType": "uint256",
          "name": "",
          "type": "uint256"
        }
      ],
      "stateMutability": "view",
      "type": "function"
    },
    {
      "inputs": [
        {
          "internalType": "uint256",
          "name": "tokenId",
          "type": "uint256"
        }
      ],
      "name": "getApproved",
      "outputs": [
        {
          "internalType": "address",
          "name": "",
          "type": "address"
        }
      ],
      "stateMutability": "view",
      "type": "function"
    },
    {
      "inputs": [
        {
          "internalType": "address",
          "name": "owner",
          "type": "address"
        },
        {
          "internalType": "address",
          "name": "operator",
          "type": "address"
        }
      ],
      "name": "isApprovedForAll",
      "outputs": [
        {
          "internalType": "bool",
          "name": "",
          "type": "bool"
        }
      ],
      "stateMutability": "view",
      "type": "function"
    },
    {
      "inputs": [],
      "name": "name",
      "outputs": [
        {
          "internalType": "string",
          "name": "",
          "type": "string"
        }
      ],
      "stateMutability": "view",
      "type": "function"
    },
    {
      "inputs": [],
      "name": "owner",
      "outputs": [
        {
          "internalType": "address",
          "name": "",
          "type": "address"
        }
      ],
      "stateMutability": "view",
      "type": "function"
    },
    {
      "inputs": [
        {
          "internalType": "uint256",
          "name": "tokenId",
          "type": "uint256"
        }
      ],
      "name": "ownerOf",
      "outputs": [
        {
          "internalType": "address",
          "name": "",
          "type": "address"
        }
      ],
      "stateMutability": "view",
      "type": "function"
    },
    {
      "inputs": [],
      "name": "renounceOwnership",
      "outputs": [],
      "stateMutability": "nonpayable",
      "type": "function"
    },
    {
      "inputs": [
        {
          "internalType": "address",
          "name": "from",
          "type": "address"
        },
        {
          "internalType": "address",
          "name": "to",
          "type": "address"
        },
        {
          "internalType": "uint256",
          "name": "tokenId",
          "type": "uint256"
        }
      ],
      "name": "safeTransferFrom",
      "outputs": [],
      "stateMutability": "nonpayable",
      "type": "function"
    },
    {
      "inputs": [
        {
          "internalType": "address",
          "name": "from",
          "type": "address"
        },
        {
          "internalType": "address",
          "name": "to",
          "type": "address"
        },
        {
          "internalType": "uint256",
          "name": "tokenId",
          "type": "uint256"
        },
        {
          "internalType": "bytes",
          "name": "_data",
          "type": "bytes"
        }
      ],
      "name": "safeTransferFrom",
      "outputs": [],
      "stateMutability": "nonpayable",
      "type": "function"
    },
    {
      "inputs": [
        {
          "internalType": "address",
          "name": "operator",
          "type": "address"
        },
        {
          "internalType": "bool",
          "name": "approved",
          "type": "bool"
        }
      ],
      "name": "setApprovalForAll",
      "outputs": [],
      "stateMutability": "nonpayable",
      "type": "function"
    },
    {
      "inputs": [
        {
          "internalType": "bytes4",
          "name": "interfaceId",
          "type": "bytes4"
        }
      ],
      "name": "supportsInterface",
      "outputs": [
        {
          "internalType": "bool",
          "name": "",
          "type": "bool"
        }
      ],
      "stateMutability": "view",
      "type": "function"
    },
    {
      "inputs": [],
      "name": "symbol",
      "outputs": [
        {
          "internalType": "string",
          "name": "",
          "type": "string"
        }
      ],
      "stateMutability": "view",
      "type": "function"
    },
    {
      "inputs": [
        {
          "internalType": "uint256",
          "name": "tokenId",
          "type": "uint256"
        }
      ],
      "name": "tokenURI",
      "outputs": [
        {
          "internalType": "string",
          "name": "",
          "type": "string"
        }
      ],
      "stateMutability": "view",
      "type": "function"
    },
    {
      "inputs": [
        {
          "internalType": "address",
          "name": "from",
          "type": "address"
        },
        {
          "internalType": "address",
          "name": "to",
          "type": "address"
        },
        {
          "internalType": "uint256",
          "name": "tokenId",
          "type": "uint256"
        }
      ],
      "name": "transferFrom",
      "outputs": [],
      "stateMutability": "nonpayable",
      "type": "function"
    },
    {
      "inputs": [
        {
          "internalType": "address",
          "name": "newOwner",
          "type": "address"
        }
      ],
      "name": "transferOwnership",
      "outputs": [],
      "stateMutability": "nonpayable",
      "type": "function"
    },
    {
      "inputs": [
        {
          "internalType": "string",
          "name": "uri_",
          "type": "string"
        }
      ],
      "name": "setBaseURI",
      "outputs": [],
      "stateMutability": "nonpayable",
      "type": "function"
    },
    {
      "inputs": [
        {
          "internalType": "uint256",
          "name": "tokenId_",
          "type": "uint256"
        }
      ],
      "name": "hatch",
      "outputs": [],
      "stateMutability": "nonpayable",
      "type": "function"
    }
  ],
  "bytecode": "0x60806040523480156200001157600080fd5b506040518060400160405280600681526020017f4567674e465400000000000000000000000000000000000000000000000000008152506040518060400160405280600381526020017f454e540000000000000000000000000000000000000000000000000000000000815250816000908051906020019062000096929190620001e0565b508060019080519060200190620000af929190620001e0565b505050620000d2620000c66200011260201b60201c565b6200011a60201b60201c565b600160078190555060405180608001604052806051815260200162002f8f60519139600890805190602001906200010b929190620001e0565b50620002f5565b600033905090565b6000600660009054906101000a900473ffffffffffffffffffffffffffffffffffffffff16905081600660006101000a81548173ffffffffffffffffffffffffffffffffffffffff021916908373ffffffffffffffffffffffffffffffffffffffff1602179055508173ffffffffffffffffffffffffffffffffffffffff168173ffffffffffffffffffffffffffffffffffffffff167f8be0079c531659141344cd1fd0a4f28419497f9722a3daafe3b4186f6b6457e060405160405180910390a35050565b828054620001ee9062000290565b90600052602060002090601f0160209004810192826200021257600085556200025e565b82601f106200022d57805160ff19168380011785556200025e565b828001600101855582156200025e579182015b828111156200025d57825182559160200191906001019062000240565b5b5090506200026d919062000271565b5090565b5b808211156200028c57600081600090555060010162000272565b5090565b60006002820490506001821680620002a957607f821691505b60208210811415620002c057620002bf620002c6565b5b50919050565b7f4e487b7100000000000000000000000000000000000000000000000000000000600052602260045260246000fd5b612c8a80620003056000396000f3fe608060405234801561001057600080fd5b50600436106101165760003560e01c8063715018a6116100a2578063b88d4fde11610071578063b88d4fde146102cb578063c87b56dd146102e7578063c8c1884214610317578063e985e9c514610333578063f2fde38b1461036357610116565b8063715018a6146102695780638da5cb5b1461027357806395d89b4114610291578063a22cb465146102af57610116565b806323b872dd116100e957806323b872dd146101b557806342842e0e146101d157806355f804b3146101ed5780636352211e1461020957806370a082311461023957610116565b806301ffc9a71461011b57806306fdde031461014b578063081812fc14610169578063095ea7b314610199575b600080fd5b61013560048036038101906101309190611d88565b61037f565b60405161014291906121ac565b60405180910390f35b610153610461565b60405161016091906121c7565b60405180910390f35b610183600480360381019061017e9190611e1b565b6104f3565b6040516101909190612145565b60405180910390f35b6101b360048036038101906101ae9190611d4c565b610578565b005b6101cf60048036038101906101ca9190611c46565b610690565b005b6101eb60048036038101906101e69190611c46565b6106f0565b005b61020760048036038101906102029190611dda565b610710565b005b610223600480360381019061021e9190611e1b565b6107a6565b6040516102309190612145565b60405180910390f35b610253600480360381019061024e9190611be1565b610858565b60405161026091906123c9565b60405180910390f35b610271610910565b005b61027b610998565b6040516102889190612145565b60405180910390f35b6102996109c2565b6040516102a691906121c7565b60405180910390f35b6102c960048036038101906102c49190611d10565b610a54565b005b6102e560048036038101906102e09190611c95565b610bd5565b005b61030160048036038101906102fc9190611e1b565b610c37565b60405161030e91906121c7565b60405180910390f35b610331600480360381019061032c9190611e1b565b610cde565b005b61034d60048036038101906103489190611c0a565b610d87565b60405161035a91906121ac565b60405180910390f35b61037d60048036038101906103789190611be1565b610e1b565b005b60007f80ac58cd000000000000000000000000000000000000000000000000000000007bffffffffffffffffffffffffffffffffffffffffffffffffffffffff1916827bffffffffffffffffffffffffffffffffffffffffffffffffffffffff1916148061044a57507f5b5e139f000000000000000000000000000000000000000000000000000000007bffffffffffffffffffffffffffffffffffffffffffffffffffffffff1916827bffffffffffffffffffffffffffffffffffffffffffffffffffffffff1916145b8061045a575061045982610f13565b5b9050919050565b6060600080546104709061261f565b80601f016020809104026020016040519081016040528092919081815260200182805461049c9061261f565b80156104e95780601f106104be576101008083540402835291602001916104e9565b820191906000526020600020905b8154815290600101906020018083116104cc57829003601f168201915b5050505050905090565b60006104fe82610f7d565b61053d576040517f08c379a0000000000000000000000000000000000000000000000000000000008152600401610534906122e9565b60405180910390fd5b6004600083815260200190815260200160002060009054906101000a900473ffffffffffffffffffffffffffffffffffffffff169050919050565b6000610583826107a6565b90508073ffffffffffffffffffffffffffffffffffffffff168373ffffffffffffffffffffffffffffffffffffffff1614156105f4576040517f08c379a00000000000000000000000000000000000000000000000000000000081526004016105eb90612369565b60405180910390fd5b8073ffffffffffffffffffffffffffffffffffffffff16610613610fe9565b73ffffffffffffffffffffffffffffffffffffffff16148061064257506106418161063c610fe9565b610d87565b5b610681576040517f08c379a000000000000000000000000000000000000000000000000000000000815260040161067890612289565b60405180910390fd5b61068b8383610ff1565b505050565b6106a161069b610fe9565b826110aa565b6106e0576040517f08c379a00000000000000000000000000000000000000000000000000000000081526004016106d790612389565b60405180910390fd5b6106eb838383611188565b505050565b61070b83838360405180602001604052806000815250610bd5565b505050565b610718610fe9565b73ffffffffffffffffffffffffffffffffffffffff16610736610998565b73ffffffffffffffffffffffffffffffffffffffff161461078c576040517f08c379a000000000000000000000000000000000000000000000000000000000815260040161078390612309565b60405180910390fd5b80600890805190602001906107a2929190611a05565b5050565b6000806002600084815260200190815260200160002060009054906101000a900473ffffffffffffffffffffffffffffffffffffffff169050600073ffffffffffffffffffffffffffffffffffffffff168173ffffffffffffffffffffffffffffffffffffffff16141561084f576040517f08c379a0000000000000000000000000000000000000000000000000000000008152600401610846906122c9565b60405180910390fd5b80915050919050565b60008073ffffffffffffffffffffffffffffffffffffffff168273ffffffffffffffffffffffffffffffffffffffff1614156108c9576040517f08c379a00000000000000000000000000000000000000000000000000000000081526004016108c0906122a9565b60405180910390fd5b600360008373ffffffffffffffffffffffffffffffffffffffff1673ffffffffffffffffffffffffffffffffffffffff168152602001908152602001600020549050919050565b610918610fe9565b73ffffffffffffffffffffffffffffffffffffffff16610936610998565b73ffffffffffffffffffffffffffffffffffffffff161461098c576040517f08c379a000000000000000000000000000000000000000000000000000000000815260040161098390612309565b60405180910390fd5b61099660006113e4565b565b6000600660009054906101000a900473ffffffffffffffffffffffffffffffffffffffff16905090565b6060600180546109d19061261f565b80601f01602080910402602001604051908101604052809291908181526020018280546109fd9061261f565b8015610a4a5780601f10610a1f57610100808354040283529160200191610a4a565b820191906000526020600020905b815481529060010190602001808311610a2d57829003601f168201915b5050505050905090565b610a5c610fe9565b73ffffffffffffffffffffffffffffffffffffffff168273ffffffffffffffffffffffffffffffffffffffff161415610aca576040517f08c379a0000000000000000000000000000000000000000000000000000000008152600401610ac190612249565b60405180910390fd5b8060056000610ad7610fe9565b73ffffffffffffffffffffffffffffffffffffffff1673ffffffffffffffffffffffffffffffffffffffff16815260200190815260200160002060008473ffffffffffffffffffffffffffffffffffffffff1673ffffffffffffffffffffffffffffffffffffffff16815260200190815260200160002060006101000a81548160ff0219169083151502179055508173ffffffffffffffffffffffffffffffffffffffff16610b84610fe9565b73ffffffffffffffffffffffffffffffffffffffff167f17307eab39ab6107e8899845ad3d59bd9653f200f220920489ca2b5937696c3183604051610bc991906121ac565b60405180910390a35050565b610be6610be0610fe9565b836110aa565b610c25576040517f08c379a0000000000000000000000000000000000000000000000000000000008152600401610c1c90612389565b60405180910390fd5b610c31848484846114aa565b50505050565b6060610c4282610f7d565b610c81576040517f08c379a0000000000000000000000000000000000000000000000000000000008152600401610c7890612349565b60405180910390fd5b6000610c8b611506565b90506000815111610cab5760405180602001604052806000815250610cd6565b80610cb584611598565b604051602001610cc6929190612121565b6040516020818303038152906040525b915050919050565b60026007541415610d24576040517f08c379a0000000000000000000000000000000000000000000000000000000008152600401610d1b906123a9565b60405180910390fd5b6002600781905550610d34610fe9565b73ffffffffffffffffffffffffffffffffffffffff16610d53826107a6565b73ffffffffffffffffffffffffffffffffffffffff1614610d7357600080fd5b610d7c81611745565b600160078190555050565b6000600560008473ffffffffffffffffffffffffffffffffffffffff1673ffffffffffffffffffffffffffffffffffffffff16815260200190815260200160002060008373ffffffffffffffffffffffffffffffffffffffff1673ffffffffffffffffffffffffffffffffffffffff16815260200190815260200160002060009054906101000a900460ff16905092915050565b610e23610fe9565b73ffffffffffffffffffffffffffffffffffffffff16610e41610998565b73ffffffffffffffffffffffffffffffffffffffff1614610e97576040517f08c379a0000000000000000000000000000000000000000000000000000000008152600401610e8e90612309565b60405180910390fd5b600073ffffffffffffffffffffffffffffffffffffffff168173ffffffffffffffffffffffffffffffffffffffff161415610f07576040517f08c379a0000000000000000000000000000000000000000000000000000000008152600401610efe90612209565b60405180910390fd5b610f10816113e4565b50565b60007f01ffc9a7000000000000000000000000000000000000000000000000000000007bffffffffffffffffffffffffffffffffffffffffffffffffffffffff1916827bffffffffffffffffffffffffffffffffffffffffffffffffffffffff1916149050919050565b60008073ffffffffffffffffffffffffffffffffffffffff166002600084815260200190815260200160002060009054906101000a900473ffffffffffffffffffffffffffffffffffffffff1673ffffffffffffffffffffffffffffffffffffffff1614159050919050565b600033905090565b816004600083815260200190815260200160002060006101000a81548173ffffffffffffffffffffffffffffffffffffffff021916908373ffffffffffffffffffffffffffffffffffffffff160217905550808273ffffffffffffffffffffffffffffffffffffffff16611064836107a6565b73ffffffffffffffffffffffffffffffffffffffff167f8c5be1e5ebec7d5bd14f71427d1e84f3dd0314c0f7b2291e5b200ac8c7c3b92560405160405180910390a45050565b60006110b582610f7d565b6110f4576040517f08c379a00000000000000000000000000000000000000000000000000000000081526004016110eb90612269565b60405180910390fd5b60006110ff836107a6565b90508073ffffffffffffffffffffffffffffffffffffffff168473ffffffffffffffffffffffffffffffffffffffff16148061116e57508373ffffffffffffffffffffffffffffffffffffffff16611156846104f3565b73ffffffffffffffffffffffffffffffffffffffff16145b8061117f575061117e8185610d87565b5b91505092915050565b8273ffffffffffffffffffffffffffffffffffffffff166111a8826107a6565b73ffffffffffffffffffffffffffffffffffffffff16146111fe576040517f08c379a00000000000000000000000000000000000000000000000000000000081526004016111f590612329565b60405180910390fd5b600073ffffffffffffffffffffffffffffffffffffffff168273ffffffffffffffffffffffffffffffffffffffff16141561126e576040517f08c379a000000000000000000000000000000000000000000000000000000000815260040161126590612229565b60405180910390fd5b611279838383611856565b611284600082610ff1565b6001600360008573ffffffffffffffffffffffffffffffffffffffff1673ffffffffffffffffffffffffffffffffffffffff16815260200190815260200160002060008282546112d49190612535565b925050819055506001600360008473ffffffffffffffffffffffffffffffffffffffff1673ffffffffffffffffffffffffffffffffffffffff168152602001908152602001600020600082825461132b91906124ae565b92505081905550816002600083815260200190815260200160002060006101000a81548173ffffffffffffffffffffffffffffffffffffffff021916908373ffffffffffffffffffffffffffffffffffffffff160217905550808273ffffffffffffffffffffffffffffffffffffffff168473ffffffffffffffffffffffffffffffffffffffff167fddf252ad1be2c89b69c2b068fc378daa952ba7f163c4a11628f55a4df523b3ef60405160405180910390a4505050565b6000600660009054906101000a900473ffffffffffffffffffffffffffffffffffffffff16905081600660006101000a81548173ffffffffffffffffffffffffffffffffffffffff021916908373ffffffffffffffffffffffffffffffffffffffff1602179055508173ffffffffffffffffffffffffffffffffffffffff168173ffffffffffffffffffffffffffffffffffffffff167f8be0079c531659141344cd1fd0a4f28419497f9722a3daafe3b4186f6b6457e060405160405180910390a35050565b6114b5848484611188565b6114c18484848461185b565b611500576040517f08c379a00000000000000000000000000000000000000000000000000000000081526004016114f7906121e9565b60405180910390fd5b50505050565b6060600880546115159061261f565b80601f01602080910402602001604051908101604052809291908181526020018280546115419061261f565b801561158e5780601f106115635761010080835404028352916020019161158e565b820191906000526020600020905b81548152906001019060200180831161157157829003601f168201915b5050505050905090565b606060008214156115e0576040518060400160405280600181526020017f30000000000000000000000000000000000000000000000000000000000000008152509050611740565b600082905060005b600082146116125780806115fb90612682565b915050600a8261160b9190612504565b91506115e8565b60008167ffffffffffffffff811115611654577f4e487b7100000000000000000000000000000000000000000000000000000000600052604160045260246000fd5b6040519080825280601f01601f1916602001820160405280156116865781602001600182028036833780820191505090505b5090505b600085146117395760018261169f9190612535565b9150600a856116ae91906126cb565b60306116ba91906124ae565b60f81b8183815181106116f6577f4e487b7100000000000000000000000000000000000000000000000000000000600052603260045260246000fd5b60200101907effffffffffffffffffffffffffffffffffffffffffffffffffffffffffffff1916908160001a905350600a856117329190612504565b945061168a565b8093505050505b919050565b6000611750826107a6565b905061175e81600084611856565b611769600083610ff1565b6001600360008373ffffffffffffffffffffffffffffffffffffffff1673ffffffffffffffffffffffffffffffffffffffff16815260200190815260200160002060008282546117b99190612535565b925050819055506002600083815260200190815260200160002060006101000a81549073ffffffffffffffffffffffffffffffffffffffff021916905581600073ffffffffffffffffffffffffffffffffffffffff168273ffffffffffffffffffffffffffffffffffffffff167fddf252ad1be2c89b69c2b068fc378daa952ba7f163c4a11628f55a4df523b3ef60405160405180910390a45050565b505050565b600061187c8473ffffffffffffffffffffffffffffffffffffffff166119f2565b156119e5578373ffffffffffffffffffffffffffffffffffffffff1663150b7a026118a5610fe9565b8786866040518563ffffffff1660e01b81526004016118c79493929190612160565b602060405180830381600087803b1580156118e157600080fd5b505af192505050801561191257506040513d601f19601f8201168201806040525081019061190f9190611db1565b60015b611995573d8060008114611942576040519150601f19603f3d011682016040523d82523d6000602084013e611947565b606091505b5060008151141561198d576040517f08c379a0000000000000000000000000000000000000000000000000000000008152600401611984906121e9565b60405180910390fd5b805181602001fd5b63150b7a0260e01b7bffffffffffffffffffffffffffffffffffffffffffffffffffffffff1916817bffffffffffffffffffffffffffffffffffffffffffffffffffffffff1916149150506119ea565b600190505b949350505050565b600080823b905060008111915050919050565b828054611a119061261f565b90600052602060002090601f016020900481019282611a335760008555611a7a565b82601f10611a4c57805160ff1916838001178555611a7a565b82800160010185558215611a7a579182015b82811115611a79578251825591602001919060010190611a5e565b5b509050611a879190611a8b565b5090565b5b80821115611aa4576000816000905550600101611a8c565b5090565b6000611abb611ab684612409565b6123e4565b905082815260208101848484011115611ad357600080fd5b611ade8482856125dd565b509392505050565b6000611af9611af48461243a565b6123e4565b905082815260208101848484011115611b1157600080fd5b611b1c8482856125dd565b509392505050565b600081359050611b3381612bf8565b92915050565b600081359050611b4881612c0f565b92915050565b600081359050611b5d81612c26565b92915050565b600081519050611b7281612c26565b92915050565b600082601f830112611b8957600080fd5b8135611b99848260208601611aa8565b91505092915050565b600082601f830112611bb357600080fd5b8135611bc3848260208601611ae6565b91505092915050565b600081359050611bdb81612c3d565b92915050565b600060208284031215611bf357600080fd5b6000611c0184828501611b24565b91505092915050565b60008060408385031215611c1d57600080fd5b6000611c2b85828601611b24565b9250506020611c3c85828601611b24565b9150509250929050565b600080600060608486031215611c5b57600080fd5b6000611c6986828701611b24565b9350506020611c7a86828701611b24565b9250506040611c8b86828701611bcc565b9150509250925092565b60008060008060808587031215611cab57600080fd5b6000611cb987828801611b24565b9450506020611cca87828801611b24565b9350506040611cdb87828801611bcc565b925050606085013567ffffffffffffffff811115611cf857600080fd5b611d0487828801611b78565b91505092959194509250565b60008060408385031215611d2357600080fd5b6000611d3185828601611b24565b9250506020611d4285828601611b39565b9150509250929050565b60008060408385031215611d5f57600080fd5b6000611d6d85828601611b24565b9250506020611d7e85828601611bcc565b9150509250929050565b600060208284031215611d9a57600080fd5b6000611da884828501611b4e565b91505092915050565b600060208284031215611dc357600080fd5b6000611dd184828501611b63565b91505092915050565b600060208284031215611dec57600080fd5b600082013567ffffffffffffffff811115611e0657600080fd5b611e1284828501611ba2565b91505092915050565b600060208284031215611e2d57600080fd5b6000611e3b84828501611bcc565b91505092915050565b611e4d81612569565b82525050565b611e5c8161257b565b82525050565b6000611e6d8261246b565b611e778185612481565b9350611e878185602086016125ec565b611e90816127b8565b840191505092915050565b6000611ea682612476565b611eb08185612492565b9350611ec08185602086016125ec565b611ec9816127b8565b840191505092915050565b6000611edf82612476565b611ee981856124a3565b9350611ef98185602086016125ec565b80840191505092915050565b6000611f12603283612492565b9150611f1d826127c9565b604082019050919050565b6000611f35602683612492565b9150611f4082612818565b604082019050919050565b6000611f58602483612492565b9150611f6382612867565b604082019050919050565b6000611f7b601983612492565b9150611f86826128b6565b602082019050919050565b6000611f9e602c83612492565b9150611fa9826128df565b604082019050919050565b6000611fc1603883612492565b9150611fcc8261292e565b604082019050919050565b6000611fe4602a83612492565b9150611fef8261297d565b604082019050919050565b6000612007602983612492565b9150612012826129cc565b604082019050919050565b600061202a602c83612492565b915061203582612a1b565b604082019050919050565b600061204d602083612492565b915061205882612a6a565b602082019050919050565b6000612070602983612492565b915061207b82612a93565b604082019050919050565b6000612093602f83612492565b915061209e82612ae2565b604082019050919050565b60006120b6602183612492565b91506120c182612b31565b604082019050919050565b60006120d9603183612492565b91506120e482612b80565b604082019050919050565b60006120fc601f83612492565b915061210782612bcf565b602082019050919050565b61211b816125d3565b82525050565b600061212d8285611ed4565b91506121398284611ed4565b91508190509392505050565b600060208201905061215a6000830184611e44565b92915050565b60006080820190506121756000830187611e44565b6121826020830186611e44565b61218f6040830185612112565b81810360608301526121a18184611e62565b905095945050505050565b60006020820190506121c16000830184611e53565b92915050565b600060208201905081810360008301526121e18184611e9b565b905092915050565b6000602082019050818103600083015261220281611f05565b9050919050565b6000602082019050818103600083015261222281611f28565b9050919050565b6000602082019050818103600083015261224281611f4b565b9050919050565b6000602082019050818103600083015261226281611f6e565b9050919050565b6000602082019050818103600083015261228281611f91565b9050919050565b600060208201905081810360008301526122a281611fb4565b9050919050565b600060208201905081810360008301526122c281611fd7565b9050919050565b600060208201905081810360008301526122e281611ffa565b9050919050565b600060208201905081810360008301526123028161201d565b9050919050565b6000602082019050818103600083015261232281612040565b9050919050565b6000602082019050818103600083015261234281612063565b9050919050565b6000602082019050818103600083015261236281612086565b9050919050565b60006020820190508181036000830152612382816120a9565b9050919050565b600060208201905081810360008301526123a2816120cc565b9050919050565b600060208201905081810360008301526123c2816120ef565b9050919050565b60006020820190506123de6000830184612112565b92915050565b60006123ee6123ff565b90506123fa8282612651565b919050565b6000604051905090565b600067ffffffffffffffff82111561242457612423612789565b5b61242d826127b8565b9050602081019050919050565b600067ffffffffffffffff82111561245557612454612789565b5b61245e826127b8565b9050602081019050919050565b600081519050919050565b600081519050919050565b600082825260208201905092915050565b600082825260208201905092915050565b600081905092915050565b60006124b9826125d3565b91506124c4836125d3565b9250827fffffffffffffffffffffffffffffffffffffffffffffffffffffffffffffffff038211156124f9576124f86126fc565b5b828201905092915050565b600061250f826125d3565b915061251a836125d3565b92508261252a5761252961272b565b5b828204905092915050565b6000612540826125d3565b915061254b836125d3565b92508282101561255e5761255d6126fc565b5b828203905092915050565b6000612574826125b3565b9050919050565b60008115159050919050565b60007fffffffff0000000000000000000000000000000000000000000000000000000082169050919050565b600073ffffffffffffffffffffffffffffffffffffffff82169050919050565b6000819050919050565b82818337600083830152505050565b60005b8381101561260a5780820151818401526020810190506125ef565b83811115612619576000848401525b50505050565b6000600282049050600182168061263757607f821691505b6020821081141561264b5761264a61275a565b5b50919050565b61265a826127b8565b810181811067ffffffffffffffff8211171561267957612678612789565b5b80604052505050565b600061268d826125d3565b91507fffffffffffffffffffffffffffffffffffffffffffffffffffffffffffffffff8214156126c0576126bf6126fc565b5b600182019050919050565b60006126d6826125d3565b91506126e1836125d3565b9250826126f1576126f061272b565b5b828206905092915050565b7f4e487b7100000000000000000000000000000000000000000000000000000000600052601160045260246000fd5b7f4e487b7100000000000000000000000000000000000000000000000000000000600052601260045260246000fd5b7f4e487b7100000000000000000000000000000000000000000000000000000000600052602260045260246000fd5b7f4e487b7100000000000000000000000000000000000000000000000000000000600052604160045260246000fd5b6000601f19601f8301169050919050565b7f4552433732313a207472616e7366657220746f206e6f6e20455243373231526560008201527f63656976657220696d706c656d656e7465720000000000000000000000000000602082015250565b7f4f776e61626c653a206e6577206f776e657220697320746865207a65726f206160008201527f6464726573730000000000000000000000000000000000000000000000000000602082015250565b7f4552433732313a207472616e7366657220746f20746865207a65726f2061646460008201527f7265737300000000000000000000000000000000000000000000000000000000602082015250565b7f4552433732313a20617070726f766520746f2063616c6c657200000000000000600082015250565b7f4552433732313a206f70657261746f7220717565727920666f72206e6f6e657860008201527f697374656e7420746f6b656e0000000000000000000000000000000000000000602082015250565b7f4552433732313a20617070726f76652063616c6c6572206973206e6f74206f7760008201527f6e6572206e6f7220617070726f76656420666f7220616c6c0000000000000000602082015250565b7f4552433732313a2062616c616e636520717565727920666f7220746865207a6560008201527f726f206164647265737300000000000000000000000000000000000000000000602082015250565b7f4552433732313a206f776e657220717565727920666f72206e6f6e657869737460008201527f656e7420746f6b656e0000000000000000000000000000000000000000000000602082015250565b7f4552433732313a20617070726f76656420717565727920666f72206e6f6e657860008201527f697374656e7420746f6b656e0000000000000000000000000000000000000000602082015250565b7f4f776e61626c653a2063616c6c6572206973206e6f7420746865206f776e6572600082015250565b7f4552433732313a207472616e73666572206f6620746f6b656e2074686174206960008201527f73206e6f74206f776e0000000000000000000000000000000000000000000000602082015250565b7f4552433732314d657461646174613a2055524920717565727920666f72206e6f60008201527f6e6578697374656e7420746f6b656e0000000000000000000000000000000000602082015250565b7f4552433732313a20617070726f76616c20746f2063757272656e74206f776e6560008201527f7200000000000000000000000000000000000000000000000000000000000000602082015250565b7f4552433732313a207472616e736665722063616c6c6572206973206e6f74206f60008201527f776e6572206e6f7220617070726f766564000000000000000000000000000000602082015250565b7f5265656e7472616e637947756172643a207265656e7472616e742063616c6c00600082015250565b612c0181612569565b8114612c0c57600080fd5b50565b612c188161257b565b8114612c2357600080fd5b50565b612c2f81612587565b8114612c3a57600080fd5b50565b612c46816125d3565b8114612c5157600080fd5b5056fea264697066735822122045bb6757305fbc5d48560d5e772ff40e1e9c8fbe8bad3d7b6f262aca2309143d64736f6c6343000803003368747470733a2f2f676174657761792e70696e6174612e636c6f75642f697066732f516d58764b364a36556f58755979625473437a73316972696a6332527954324a4879796d464e5a7a636351356d502f",
  "immutableReferences": {},
  "source": "// SPDX-License-Identifier: MIT\npragma solidity ^0.8.3;\n\nimport \"@openzeppelin/contracts/token/ERC721/ERC721.sol\";\nimport \"@openzeppelin/contracts/access/Ownable.sol\";\nimport \"@openzeppelin/contracts/security/ReentrancyGuard.sol\";\nimport \"@openzeppelin/contracts/utils/math/SafeMath.sol\";\nimport \"@openzeppelin/contracts/utils/Strings.sol\";\n\ncontract EggNFT is ERC721, Ownable, ReentrancyGuard {\n    using Strings for string;\n\n    string private baseURI;\n\n    constructor() ERC721(\"EggNFT\", \"ENT\") {\n        baseURI = \"https://gateway.pinata.cloud/ipfs/QmXvK6J6UoXuYybTsCzs1irijc2RyT2JHyymFNZzccQ5mP/\";\n    }\n\n    function setBaseURI(string memory uri_) external onlyOwner {\n        baseURI = uri_;\n    }\n\n    function _baseURI() internal view override returns (string memory) {\n        return baseURI;\n    }\n\n    // function tokenURI(uint256 tokenId_) override public pure returns (string memory) {\n    //     return string(abi.encodePacked(_baseURI(), Strings.toString(tokenId_)));\n    // }\n\n    function hatch(uint256 tokenId_) public nonReentrant {\n        require(ownerOf(tokenId_) == _msgSender());\n\n        // FactoryERC721 factory = FactoryERC721(factoryAddress);\n        // factory.mint(OPTION_ID, _msgSender());\n\n        _burn(tokenId_);\n    }\n\n}\n\n\n\n\n\n\n",
  "sourcePath": "/Users/jack/Documents/GitHub/NFT/contracts/loot-box-duck-nft/contracts/EggNFT.sol",
  "compiler": {
    "name": "solc",
    "version": "0.8.3+commit.8d00100c.Emscripten.clang"
  },
  "schemaVersion": "3.4.0",
  "updatedAt": "2021-09-06T13:43:39.018Z",
  "devdoc": {
    "kind": "dev",
    "methods": {
      "approve(address,uint256)": {
        "details": "See {IERC721-approve}."
      },
      "balanceOf(address)": {
        "details": "See {IERC721-balanceOf}."
      },
      "getApproved(uint256)": {
        "details": "See {IERC721-getApproved}."
      },
      "isApprovedForAll(address,address)": {
        "details": "See {IERC721-isApprovedForAll}."
      },
      "name()": {
        "details": "See {IERC721Metadata-name}."
      },
      "owner()": {
        "details": "Returns the address of the current owner."
      },
      "ownerOf(uint256)": {
        "details": "See {IERC721-ownerOf}."
      },
      "renounceOwnership()": {
        "details": "Leaves the contract without owner. It will not be possible to call `onlyOwner` functions anymore. Can only be called by the current owner. NOTE: Renouncing ownership will leave the contract without an owner, thereby removing any functionality that is only available to the owner."
      },
      "safeTransferFrom(address,address,uint256)": {
        "details": "See {IERC721-safeTransferFrom}."
      },
      "safeTransferFrom(address,address,uint256,bytes)": {
        "details": "See {IERC721-safeTransferFrom}."
      },
      "setApprovalForAll(address,bool)": {
        "details": "See {IERC721-setApprovalForAll}."
      },
      "supportsInterface(bytes4)": {
        "details": "See {IERC165-supportsInterface}."
      },
      "symbol()": {
        "details": "See {IERC721Metadata-symbol}."
      },
      "tokenURI(uint256)": {
        "details": "See {IERC721Metadata-tokenURI}."
      },
      "transferFrom(address,address,uint256)": {
        "details": "See {IERC721-transferFrom}."
      },
      "transferOwnership(address)": {
        "details": "Transfers ownership of the contract to a new account (`newOwner`). Can only be called by the current owner."
      }
    },
    "version": 1
  },
  "userdoc": {
    "kind": "user",
    "methods": {},
    "version": 1
  }
}