{
  "contractName": "DuckNFT",
  "abi": [
    {
      "inputs": [],
      "stateMutability": "nonpayable",
      "type": "constructor"
    },
    {
      "anonymous": false,
      "inputs": [
        {
          "indexed": true,
          "internalType": "address",
          "name": "owner",
          "type": "address"
        },
        {
          "indexed": true,
          "internalType": "address",
          "name": "approved",
          "type": "address"
        },
        {
          "indexed": true,
          "internalType": "uint256",
          "name": "tokenId",
          "type": "uint256"
        }
      ],
      "name": "Approval",
      "type": "event"
    },
    {
      "anonymous": false,
      "inputs": [
        {
          "indexed": true,
          "internalType": "address",
          "name": "owner",
          "type": "address"
        },
        {
          "indexed": true,
          "internalType": "address",
          "name": "operator",
          "type": "address"
        },
        {
          "indexed": false,
          "internalType": "bool",
          "name": "approved",
          "type": "bool"
        }
      ],
      "name": "ApprovalForAll",
      "type": "event"
    },
    {
      "anonymous": false,
      "inputs": [
        {
          "indexed": true,
          "internalType": "address",
          "name": "previousOwner",
          "type": "address"
        },
        {
          "indexed": true,
          "internalType": "address",
          "name": "newOwner",
          "type": "address"
        }
      ],
      "name": "OwnershipTransferred",
      "type": "event"
    },
    {
      "anonymous": false,
      "inputs": [
        {
          "indexed": true,
          "internalType": "address",
          "name": "from",
          "type": "address"
        },
        {
          "indexed": true,
          "internalType": "address",
          "name": "to",
          "type": "address"
        },
        {
          "indexed": true,
          "internalType": "uint256",
          "name": "tokenId",
          "type": "uint256"
        }
      ],
      "name": "Transfer",
      "type": "event"
    },
    {
      "inputs": [
        {
          "internalType": "address",
          "name": "to",
          "type": "address"
        },
        {
          "internalType": "uint256",
          "name": "tokenId",
          "type": "uint256"
        }
      ],
      "name": "approve",
      "outputs": [],
      "stateMutability": "nonpayable",
      "type": "function"
    },
    {
      "inputs": [
        {
          "internalType": "address",
          "name": "owner",
          "type": "address"
        }
      ],
      "name": "balanceOf",
      "outputs": [
        {
          "internalType": "uint256",
          "name": "",
          "type": "uint256"
        }
      ],
      "stateMutability": "view",
      "type": "function",
      "constant": true
    },
    {
      "inputs": [
        {
          "internalType": "uint256",
          "name": "tokenId",
          "type": "uint256"
        }
      ],
      "name": "getApproved",
      "outputs": [
        {
          "internalType": "address",
          "name": "",
          "type": "address"
        }
      ],
      "stateMutability": "view",
      "type": "function",
      "constant": true
    },
    {
      "inputs": [
        {
          "internalType": "address",
          "name": "owner",
          "type": "address"
        },
        {
          "internalType": "address",
          "name": "operator",
          "type": "address"
        }
      ],
      "name": "isApprovedForAll",
      "outputs": [
        {
          "internalType": "bool",
          "name": "",
          "type": "bool"
        }
      ],
      "stateMutability": "view",
      "type": "function",
      "constant": true
    },
    {
      "inputs": [],
      "name": "name",
      "outputs": [
        {
          "internalType": "string",
          "name": "",
          "type": "string"
        }
      ],
      "stateMutability": "view",
      "type": "function",
      "constant": true
    },
    {
      "inputs": [],
      "name": "owner",
      "outputs": [
        {
          "internalType": "address",
          "name": "",
          "type": "address"
        }
      ],
      "stateMutability": "view",
      "type": "function",
      "constant": true
    },
    {
      "inputs": [
        {
          "internalType": "uint256",
          "name": "tokenId",
          "type": "uint256"
        }
      ],
      "name": "ownerOf",
      "outputs": [
        {
          "internalType": "address",
          "name": "",
          "type": "address"
        }
      ],
      "stateMutability": "view",
      "type": "function",
      "constant": true
    },
    {
      "inputs": [],
      "name": "renounceOwnership",
      "outputs": [],
      "stateMutability": "nonpayable",
      "type": "function"
    },
    {
      "inputs": [
        {
          "internalType": "address",
          "name": "from",
          "type": "address"
        },
        {
          "internalType": "address",
          "name": "to",
          "type": "address"
        },
        {
          "internalType": "uint256",
          "name": "tokenId",
          "type": "uint256"
        }
      ],
      "name": "safeTransferFrom",
      "outputs": [],
      "stateMutability": "nonpayable",
      "type": "function"
    },
    {
      "inputs": [
        {
          "internalType": "address",
          "name": "from",
          "type": "address"
        },
        {
          "internalType": "address",
          "name": "to",
          "type": "address"
        },
        {
          "internalType": "uint256",
          "name": "tokenId",
          "type": "uint256"
        },
        {
          "internalType": "bytes",
          "name": "_data",
          "type": "bytes"
        }
      ],
      "name": "safeTransferFrom",
      "outputs": [],
      "stateMutability": "nonpayable",
      "type": "function"
    },
    {
      "inputs": [
        {
          "internalType": "address",
          "name": "operator",
          "type": "address"
        },
        {
          "internalType": "bool",
          "name": "approved",
          "type": "bool"
        }
      ],
      "name": "setApprovalForAll",
      "outputs": [],
      "stateMutability": "nonpayable",
      "type": "function"
    },
    {
      "inputs": [
        {
          "internalType": "bytes4",
          "name": "interfaceId",
          "type": "bytes4"
        }
      ],
      "name": "supportsInterface",
      "outputs": [
        {
          "internalType": "bool",
          "name": "",
          "type": "bool"
        }
      ],
      "stateMutability": "view",
      "type": "function",
      "constant": true
    },
    {
      "inputs": [],
      "name": "symbol",
      "outputs": [
        {
          "internalType": "string",
          "name": "",
          "type": "string"
        }
      ],
      "stateMutability": "view",
      "type": "function",
      "constant": true
    },
    {
      "inputs": [
        {
          "internalType": "uint256",
          "name": "tokenId",
          "type": "uint256"
        }
      ],
      "name": "tokenURI",
      "outputs": [
        {
          "internalType": "string",
          "name": "",
          "type": "string"
        }
      ],
      "stateMutability": "view",
      "type": "function",
      "constant": true
    },
    {
      "inputs": [
        {
          "internalType": "address",
          "name": "from",
          "type": "address"
        },
        {
          "internalType": "address",
          "name": "to",
          "type": "address"
        },
        {
          "internalType": "uint256",
          "name": "tokenId",
          "type": "uint256"
        }
      ],
      "name": "transferFrom",
      "outputs": [],
      "stateMutability": "nonpayable",
      "type": "function"
    },
    {
      "inputs": [
        {
          "internalType": "address",
          "name": "newOwner",
          "type": "address"
        }
      ],
      "name": "transferOwnership",
      "outputs": [],
      "stateMutability": "nonpayable",
      "type": "function"
    },
    {
      "inputs": [
        {
          "internalType": "address",
          "name": "addr_",
          "type": "address"
        }
      ],
      "name": "setManager",
      "outputs": [],
      "stateMutability": "nonpayable",
      "type": "function"
    },
    {
      "inputs": [],
      "name": "getManager",
      "outputs": [
        {
          "internalType": "address",
          "name": "",
          "type": "address"
        }
      ],
      "stateMutability": "view",
      "type": "function",
      "constant": true
    },
    {
      "inputs": [
        {
          "internalType": "string",
          "name": "uri_",
          "type": "string"
        }
      ],
      "name": "setBaseURI",
      "outputs": [],
      "stateMutability": "nonpayable",
      "type": "function"
    },
    {
      "inputs": [
        {
          "internalType": "address",
          "name": "to_",
          "type": "address"
        },
        {
          "internalType": "uint256",
          "name": "tokenId_",
          "type": "uint256"
        }
      ],
      "name": "mintToken",
      "outputs": [],
      "stateMutability": "nonpayable",
      "type": "function"
    }
  ],
  "bytecode": "0x60806040523480156200001157600080fd5b506040518060400160405280601781526020017f466f726576657220466f6d6f204475636b2053717561640000000000000000008152506040518060400160405280600481526020017f4646445300000000000000000000000000000000000000000000000000000000815250816000908051906020019062000096929190620001f4565b508060019080519060200190620000af929190620001f4565b505050620000d2620000c66200012660201b60201c565b6200012e60201b60201c565b6040518060400160405280602081526020017f68747470733a2f2f686967687374726565742e6d61726b65742f6475636b732f815250600890805190602001906200011f929190620001f4565b5062000309565b600033905090565b6000600660009054906101000a900473ffffffffffffffffffffffffffffffffffffffff16905081600660006101000a81548173ffffffffffffffffffffffffffffffffffffffff021916908373ffffffffffffffffffffffffffffffffffffffff1602179055508173ffffffffffffffffffffffffffffffffffffffff168173ffffffffffffffffffffffffffffffffffffffff167f8be0079c531659141344cd1fd0a4f28419497f9722a3daafe3b4186f6b6457e060405160405180910390a35050565b8280546200020290620002a4565b90600052602060002090601f01602090048101928262000226576000855562000272565b82601f106200024157805160ff191683800117855562000272565b8280016001018555821562000272579182015b828111156200027157825182559160200191906001019062000254565b5b50905062000281919062000285565b5090565b5b80821115620002a057600081600090555060010162000286565b5090565b60006002820490506001821680620002bd57607f821691505b60208210811415620002d457620002d3620002da565b5b50919050565b7f4e487b7100000000000000000000000000000000000000000000000000000000600052602260045260246000fd5b61303280620003196000396000f3fe608060405234801561001057600080fd5b506004361061012c5760003560e01c806379c65068116100ad578063c87b56dd11610071578063c87b56dd14610319578063d0ebdbe714610349578063d500958414610365578063e985e9c514610383578063f2fde38b146103b35761012c565b806379c65068146102895780638da5cb5b146102a557806395d89b41146102c3578063a22cb465146102e1578063b88d4fde146102fd5761012c565b806342842e0e116100f457806342842e0e146101e757806355f804b3146102035780636352211e1461021f57806370a082311461024f578063715018a61461027f5761012c565b806301ffc9a71461013157806306fdde0314610161578063081812fc1461017f578063095ea7b3146101af57806323b872dd146101cb575b600080fd5b61014b600480360381019061014691906120eb565b6103cf565b604051610158919061294a565b60405180910390f35b6101696104b1565b6040516101769190612965565b60405180910390f35b6101996004803603810190610194919061217e565b610543565b6040516101a691906128e3565b60405180910390f35b6101c960048036038101906101c491906120af565b6105c8565b005b6101e560048036038101906101e09190611fa9565b6106e0565b005b61020160048036038101906101fc9190611fa9565b610740565b005b61021d6004803603810190610218919061213d565b610760565b005b6102396004803603810190610234919061217e565b610847565b60405161024691906128e3565b60405180910390f35b61026960048036038101906102649190611f44565b6108f9565b6040516102769190612bc7565b60405180910390f35b6102876109b1565b005b6102a3600480360381019061029e91906120af565b610a39565b005b6102ad610b14565b6040516102ba91906128e3565b60405180910390f35b6102cb610b3e565b6040516102d89190612965565b60405180910390f35b6102fb60048036038101906102f69190612073565b610bd0565b005b61031760048036038101906103129190611ff8565b610d51565b005b610333600480360381019061032e919061217e565b610db3565b6040516103409190612965565b60405180910390f35b610363600480360381019061035e9190611f44565b610e5a565b005b61036d610f8a565b60405161037a91906128e3565b60405180910390f35b61039d60048036038101906103989190611f6d565b610fb4565b6040516103aa919061294a565b60405180910390f35b6103cd60048036038101906103c89190611f44565b611048565b005b60007f80ac58cd000000000000000000000000000000000000000000000000000000007bffffffffffffffffffffffffffffffffffffffffffffffffffffffff1916827bffffffffffffffffffffffffffffffffffffffffffffffffffffffff1916148061049a57507f5b5e139f000000000000000000000000000000000000000000000000000000007bffffffffffffffffffffffffffffffffffffffffffffffffffffffff1916827bffffffffffffffffffffffffffffffffffffffffffffffffffffffff1916145b806104aa57506104a982611140565b5b9050919050565b6060600080546104c090612e27565b80601f01602080910402602001604051908101604052809291908181526020018280546104ec90612e27565b80156105395780601f1061050e57610100808354040283529160200191610539565b820191906000526020600020905b81548152906001019060200180831161051c57829003601f168201915b5050505050905090565b600061054e826111aa565b61058d576040517f08c379a000000000000000000000000000000000000000000000000000000000815260040161058490612ae7565b60405180910390fd5b6004600083815260200190815260200160002060009054906101000a900473ffffffffffffffffffffffffffffffffffffffff169050919050565b60006105d382610847565b90508073ffffffffffffffffffffffffffffffffffffffff168373ffffffffffffffffffffffffffffffffffffffff161415610644576040517f08c379a000000000000000000000000000000000000000000000000000000000815260040161063b90612b87565b60405180910390fd5b8073ffffffffffffffffffffffffffffffffffffffff16610663611216565b73ffffffffffffffffffffffffffffffffffffffff16148061069257506106918161068c611216565b610fb4565b5b6106d1576040517f08c379a00000000000000000000000000000000000000000000000000000000081526004016106c890612a47565b60405180910390fd5b6106db838361121e565b505050565b6106f16106eb611216565b826112d7565b610730576040517f08c379a000000000000000000000000000000000000000000000000000000000815260040161072790612ba7565b60405180910390fd5b61073b8383836113b5565b505050565b61075b83838360405180602001604052806000815250610d51565b505050565b610768610b14565b73ffffffffffffffffffffffffffffffffffffffff163373ffffffffffffffffffffffffffffffffffffffff1614806107ee5750600760009054906101000a900473ffffffffffffffffffffffffffffffffffffffff1673ffffffffffffffffffffffffffffffffffffffff163373ffffffffffffffffffffffffffffffffffffffff16145b61082d576040517f08c379a000000000000000000000000000000000000000000000000000000000815260040161082490612b07565b60405180910390fd5b8060089080519060200190610843929190611d68565b5050565b6000806002600084815260200190815260200160002060009054906101000a900473ffffffffffffffffffffffffffffffffffffffff169050600073ffffffffffffffffffffffffffffffffffffffff168173ffffffffffffffffffffffffffffffffffffffff1614156108f0576040517f08c379a00000000000000000000000000000000000000000000000000000000081526004016108e790612a87565b60405180910390fd5b80915050919050565b60008073ffffffffffffffffffffffffffffffffffffffff168273ffffffffffffffffffffffffffffffffffffffff16141561096a576040517f08c379a000000000000000000000000000000000000000000000000000000000815260040161096190612a67565b60405180910390fd5b600360008373ffffffffffffffffffffffffffffffffffffffff1673ffffffffffffffffffffffffffffffffffffffff168152602001908152602001600020549050919050565b6109b9611216565b73ffffffffffffffffffffffffffffffffffffffff166109d7610b14565b73ffffffffffffffffffffffffffffffffffffffff1614610a2d576040517f08c379a0000000000000000000000000000000000000000000000000000000008152600401610a2490612b27565b60405180910390fd5b610a376000611611565b565b610a41610b14565b73ffffffffffffffffffffffffffffffffffffffff163373ffffffffffffffffffffffffffffffffffffffff161480610ac75750600760009054906101000a900473ffffffffffffffffffffffffffffffffffffffff1673ffffffffffffffffffffffffffffffffffffffff163373ffffffffffffffffffffffffffffffffffffffff16145b610b06576040517f08c379a0000000000000000000000000000000000000000000000000000000008152600401610afd90612b07565b60405180910390fd5b610b1082826116d7565b5050565b6000600660009054906101000a900473ffffffffffffffffffffffffffffffffffffffff16905090565b606060018054610b4d90612e27565b80601f0160208091040260200160405190810160405280929190818152602001828054610b7990612e27565b8015610bc65780601f10610b9b57610100808354040283529160200191610bc6565b820191906000526020600020905b815481529060010190602001808311610ba957829003601f168201915b5050505050905090565b610bd8611216565b73ffffffffffffffffffffffffffffffffffffffff168273ffffffffffffffffffffffffffffffffffffffff161415610c46576040517f08c379a0000000000000000000000000000000000000000000000000000000008152600401610c3d90612a07565b60405180910390fd5b8060056000610c53611216565b73ffffffffffffffffffffffffffffffffffffffff1673ffffffffffffffffffffffffffffffffffffffff16815260200190815260200160002060008473ffffffffffffffffffffffffffffffffffffffff1673ffffffffffffffffffffffffffffffffffffffff16815260200190815260200160002060006101000a81548160ff0219169083151502179055508173ffffffffffffffffffffffffffffffffffffffff16610d00611216565b73ffffffffffffffffffffffffffffffffffffffff167f17307eab39ab6107e8899845ad3d59bd9653f200f220920489ca2b5937696c3183604051610d45919061294a565b60405180910390a35050565b610d62610d5c611216565b836112d7565b610da1576040517f08c379a0000000000000000000000000000000000000000000000000000000008152600401610d9890612ba7565b60405180910390fd5b610dad848484846116f5565b50505050565b6060610dbe826111aa565b610dfd576040517f08c379a0000000000000000000000000000000000000000000000000000000008152600401610df490612b67565b60405180910390fd5b6000610e07611751565b90506000815111610e275760405180602001604052806000815250610e52565b80610e31846117e3565b604051602001610e429291906128bf565b6040516020818303038152906040525b915050919050565b610e62611216565b73ffffffffffffffffffffffffffffffffffffffff16610e80610b14565b73ffffffffffffffffffffffffffffffffffffffff1614610ed6576040517f08c379a0000000000000000000000000000000000000000000000000000000008152600401610ecd90612b27565b60405180910390fd5b600073ffffffffffffffffffffffffffffffffffffffff168173ffffffffffffffffffffffffffffffffffffffff161415610f46576040517f08c379a0000000000000000000000000000000000000000000000000000000008152600401610f3d90612aa7565b60405180910390fd5b80600760006101000a81548173ffffffffffffffffffffffffffffffffffffffff021916908373ffffffffffffffffffffffffffffffffffffffff16021790555050565b6000600760009054906101000a900473ffffffffffffffffffffffffffffffffffffffff16905090565b6000600560008473ffffffffffffffffffffffffffffffffffffffff1673ffffffffffffffffffffffffffffffffffffffff16815260200190815260200160002060008373ffffffffffffffffffffffffffffffffffffffff1673ffffffffffffffffffffffffffffffffffffffff16815260200190815260200160002060009054906101000a900460ff16905092915050565b611050611216565b73ffffffffffffffffffffffffffffffffffffffff1661106e610b14565b73ffffffffffffffffffffffffffffffffffffffff16146110c4576040517f08c379a00000000000000000000000000000000000000000000000000000000081526004016110bb90612b27565b60405180910390fd5b600073ffffffffffffffffffffffffffffffffffffffff168173ffffffffffffffffffffffffffffffffffffffff161415611134576040517f08c379a000000000000000000000000000000000000000000000000000000000815260040161112b906129a7565b60405180910390fd5b61113d81611611565b50565b60007f01ffc9a7000000000000000000000000000000000000000000000000000000007bffffffffffffffffffffffffffffffffffffffffffffffffffffffff1916827bffffffffffffffffffffffffffffffffffffffffffffffffffffffff1916149050919050565b60008073ffffffffffffffffffffffffffffffffffffffff166002600084815260200190815260200160002060009054906101000a900473ffffffffffffffffffffffffffffffffffffffff1673ffffffffffffffffffffffffffffffffffffffff1614159050919050565b600033905090565b816004600083815260200190815260200160002060006101000a81548173ffffffffffffffffffffffffffffffffffffffff021916908373ffffffffffffffffffffffffffffffffffffffff160217905550808273ffffffffffffffffffffffffffffffffffffffff1661129183610847565b73ffffffffffffffffffffffffffffffffffffffff167f8c5be1e5ebec7d5bd14f71427d1e84f3dd0314c0f7b2291e5b200ac8c7c3b92560405160405180910390a45050565b60006112e2826111aa565b611321576040517f08c379a000000000000000000000000000000000000000000000000000000000815260040161131890612a27565b60405180910390fd5b600061132c83610847565b90508073ffffffffffffffffffffffffffffffffffffffff168473ffffffffffffffffffffffffffffffffffffffff16148061139b57508373ffffffffffffffffffffffffffffffffffffffff1661138384610543565b73ffffffffffffffffffffffffffffffffffffffff16145b806113ac57506113ab8185610fb4565b5b91505092915050565b8273ffffffffffffffffffffffffffffffffffffffff166113d582610847565b73ffffffffffffffffffffffffffffffffffffffff161461142b576040517f08c379a000000000000000000000000000000000000000000000000000000000815260040161142290612b47565b60405180910390fd5b600073ffffffffffffffffffffffffffffffffffffffff168273ffffffffffffffffffffffffffffffffffffffff16141561149b576040517f08c379a0000000000000000000000000000000000000000000000000000000008152600401611492906129e7565b60405180910390fd5b6114a6838383611990565b6114b160008261121e565b6001600360008573ffffffffffffffffffffffffffffffffffffffff1673ffffffffffffffffffffffffffffffffffffffff16815260200190815260200160002060008282546115019190612d3d565b925050819055506001600360008473ffffffffffffffffffffffffffffffffffffffff1673ffffffffffffffffffffffffffffffffffffffff16815260200190815260200160002060008282546115589190612cb6565b92505081905550816002600083815260200190815260200160002060006101000a81548173ffffffffffffffffffffffffffffffffffffffff021916908373ffffffffffffffffffffffffffffffffffffffff160217905550808273ffffffffffffffffffffffffffffffffffffffff168473ffffffffffffffffffffffffffffffffffffffff167fddf252ad1be2c89b69c2b068fc378daa952ba7f163c4a11628f55a4df523b3ef60405160405180910390a4505050565b6000600660009054906101000a900473ffffffffffffffffffffffffffffffffffffffff16905081600660006101000a81548173ffffffffffffffffffffffffffffffffffffffff021916908373ffffffffffffffffffffffffffffffffffffffff1602179055508173ffffffffffffffffffffffffffffffffffffffff168173ffffffffffffffffffffffffffffffffffffffff167f8be0079c531659141344cd1fd0a4f28419497f9722a3daafe3b4186f6b6457e060405160405180910390a35050565b6116f1828260405180602001604052806000815250611995565b5050565b6117008484846113b5565b61170c848484846119f0565b61174b576040517f08c379a000000000000000000000000000000000000000000000000000000000815260040161174290612987565b60405180910390fd5b50505050565b60606008805461176090612e27565b80601f016020809104026020016040519081016040528092919081815260200182805461178c90612e27565b80156117d95780601f106117ae576101008083540402835291602001916117d9565b820191906000526020600020905b8154815290600101906020018083116117bc57829003601f168201915b5050505050905090565b6060600082141561182b576040518060400160405280600181526020017f3000000000000000000000000000000000000000000000000000000000000000815250905061198b565b600082905060005b6000821461185d57808061184690612e59565b915050600a826118569190612d0c565b9150611833565b60008167ffffffffffffffff81111561189f577f4e487b7100000000000000000000000000000000000000000000000000000000600052604160045260246000fd5b6040519080825280601f01601f1916602001820160405280156118d15781602001600182028036833780820191505090505b5090505b60008514611984576001826118ea9190612d3d565b9150600a856118f99190612ea2565b60306119059190612cb6565b60f81b818381518110611941577f4e487b7100000000000000000000000000000000000000000000000000000000600052603260045260246000fd5b60200101907effffffffffffffffffffffffffffffffffffffffffffffffffffffffffffff1916908160001a905350600a8561197d9190612d0c565b94506118d5565b8093505050505b919050565b505050565b61199f8383611b87565b6119ac60008484846119f0565b6119eb576040517f08c379a00000000000000000000000000000000000000000000000000000000081526004016119e290612987565b60405180910390fd5b505050565b6000611a118473ffffffffffffffffffffffffffffffffffffffff16611d55565b15611b7a578373ffffffffffffffffffffffffffffffffffffffff1663150b7a02611a3a611216565b8786866040518563ffffffff1660e01b8152600401611a5c94939291906128fe565b602060405180830381600087803b158015611a7657600080fd5b505af1925050508015611aa757506040513d601f19601f82011682018060405250810190611aa49190612114565b60015b611b2a573d8060008114611ad7576040519150601f19603f3d011682016040523d82523d6000602084013e611adc565b606091505b50600081511415611b22576040517f08c379a0000000000000000000000000000000000000000000000000000000008152600401611b1990612987565b60405180910390fd5b805181602001fd5b63150b7a0260e01b7bffffffffffffffffffffffffffffffffffffffffffffffffffffffff1916817bffffffffffffffffffffffffffffffffffffffffffffffffffffffff191614915050611b7f565b600190505b949350505050565b600073ffffffffffffffffffffffffffffffffffffffff168273ffffffffffffffffffffffffffffffffffffffff161415611bf7576040517f08c379a0000000000000000000000000000000000000000000000000000000008152600401611bee90612ac7565b60405180910390fd5b611c00816111aa565b15611c40576040517f08c379a0000000000000000000000000000000000000000000000000000000008152600401611c37906129c7565b60405180910390fd5b611c4c60008383611990565b6001600360008473ffffffffffffffffffffffffffffffffffffffff1673ffffffffffffffffffffffffffffffffffffffff1681526020019081526020016000206000828254611c9c9190612cb6565b92505081905550816002600083815260200190815260200160002060006101000a81548173ffffffffffffffffffffffffffffffffffffffff021916908373ffffffffffffffffffffffffffffffffffffffff160217905550808273ffffffffffffffffffffffffffffffffffffffff16600073ffffffffffffffffffffffffffffffffffffffff167fddf252ad1be2c89b69c2b068fc378daa952ba7f163c4a11628f55a4df523b3ef60405160405180910390a45050565b600080823b905060008111915050919050565b828054611d7490612e27565b90600052602060002090601f016020900481019282611d965760008555611ddd565b82601f10611daf57805160ff1916838001178555611ddd565b82800160010185558215611ddd579182015b82811115611ddc578251825591602001919060010190611dc1565b5b509050611dea9190611dee565b5090565b5b80821115611e07576000816000905550600101611def565b5090565b6000611e1e611e1984612c13565b612be2565b905082815260208101848484011115611e3657600080fd5b611e41848285612de5565b509392505050565b6000611e5c611e5784612c43565b612be2565b905082815260208101848484011115611e7457600080fd5b611e7f848285612de5565b509392505050565b600081359050611e9681612fa0565b92915050565b600081359050611eab81612fb7565b92915050565b600081359050611ec081612fce565b92915050565b600081519050611ed581612fce565b92915050565b600082601f830112611eec57600080fd5b8135611efc848260208601611e0b565b91505092915050565b600082601f830112611f1657600080fd5b8135611f26848260208601611e49565b91505092915050565b600081359050611f3e81612fe5565b92915050565b600060208284031215611f5657600080fd5b6000611f6484828501611e87565b91505092915050565b60008060408385031215611f8057600080fd5b6000611f8e85828601611e87565b9250506020611f9f85828601611e87565b9150509250929050565b600080600060608486031215611fbe57600080fd5b6000611fcc86828701611e87565b9350506020611fdd86828701611e87565b9250506040611fee86828701611f2f565b9150509250925092565b6000806000806080858703121561200e57600080fd5b600061201c87828801611e87565b945050602061202d87828801611e87565b935050604061203e87828801611f2f565b925050606085013567ffffffffffffffff81111561205b57600080fd5b61206787828801611edb565b91505092959194509250565b6000806040838503121561208657600080fd5b600061209485828601611e87565b92505060206120a585828601611e9c565b9150509250929050565b600080604083850312156120c257600080fd5b60006120d085828601611e87565b92505060206120e185828601611f2f565b9150509250929050565b6000602082840312156120fd57600080fd5b600061210b84828501611eb1565b91505092915050565b60006020828403121561212657600080fd5b600061213484828501611ec6565b91505092915050565b60006020828403121561214f57600080fd5b600082013567ffffffffffffffff81111561216957600080fd5b61217584828501611f05565b91505092915050565b60006020828403121561219057600080fd5b600061219e84828501611f2f565b91505092915050565b6121b081612d71565b82525050565b6121bf81612d83565b82525050565b60006121d082612c73565b6121da8185612c89565b93506121ea818560208601612df4565b6121f381612f8f565b840191505092915050565b600061220982612c7e565b6122138185612c9a565b9350612223818560208601612df4565b61222c81612f8f565b840191505092915050565b600061224282612c7e565b61224c8185612cab565b935061225c818560208601612df4565b80840191505092915050565b6000612275603283612c9a565b91507f4552433732313a207472616e7366657220746f206e6f6e20455243373231526560008301527f63656976657220696d706c656d656e74657200000000000000000000000000006020830152604082019050919050565b60006122db602683612c9a565b91507f4f776e61626c653a206e6577206f776e657220697320746865207a65726f206160008301527f64647265737300000000000000000000000000000000000000000000000000006020830152604082019050919050565b6000612341601c83612c9a565b91507f4552433732313a20746f6b656e20616c7265616479206d696e746564000000006000830152602082019050919050565b6000612381602483612c9a565b91507f4552433732313a207472616e7366657220746f20746865207a65726f2061646460008301527f72657373000000000000000000000000000000000000000000000000000000006020830152604082019050919050565b60006123e7601983612c9a565b91507f4552433732313a20617070726f766520746f2063616c6c6572000000000000006000830152602082019050919050565b6000612427602c83612c9a565b91507f4552433732313a206f70657261746f7220717565727920666f72206e6f6e657860008301527f697374656e7420746f6b656e00000000000000000000000000000000000000006020830152604082019050919050565b600061248d603883612c9a565b91507f4552433732313a20617070726f76652063616c6c6572206973206e6f74206f7760008301527f6e6572206e6f7220617070726f76656420666f7220616c6c00000000000000006020830152604082019050919050565b60006124f3602a83612c9a565b91507f4552433732313a2062616c616e636520717565727920666f7220746865207a6560008301527f726f2061646472657373000000000000000000000000000000000000000000006020830152604082019050919050565b6000612559602983612c9a565b91507f4552433732313a206f776e657220717565727920666f72206e6f6e657869737460008301527f656e7420746f6b656e00000000000000000000000000000000000000000000006020830152604082019050919050565b60006125bf600f83612c9a565b91507f696e76616c6964206164647265737300000000000000000000000000000000006000830152602082019050919050565b60006125ff602083612c9a565b91507f4552433732313a206d696e7420746f20746865207a65726f20616464726573736000830152602082019050919050565b600061263f602c83612c9a565b91507f4552433732313a20617070726f76656420717565727920666f72206e6f6e657860008301527f697374656e7420746f6b656e00000000000000000000000000000000000000006020830152604082019050919050565b60006126a5601183612c9a565b91507f7065726d697373696f6e2064656e6965640000000000000000000000000000006000830152602082019050919050565b60006126e5602083612c9a565b91507f4f776e61626c653a2063616c6c6572206973206e6f7420746865206f776e65726000830152602082019050919050565b6000612725602983612c9a565b91507f4552433732313a207472616e73666572206f6620746f6b656e2074686174206960008301527f73206e6f74206f776e00000000000000000000000000000000000000000000006020830152604082019050919050565b600061278b602f83612c9a565b91507f4552433732314d657461646174613a2055524920717565727920666f72206e6f60008301527f6e6578697374656e7420746f6b656e00000000000000000000000000000000006020830152604082019050919050565b60006127f1602183612c9a565b91507f4552433732313a20617070726f76616c20746f2063757272656e74206f776e6560008301527f72000000000000000000000000000000000000000000000000000000000000006020830152604082019050919050565b6000612857603183612c9a565b91507f4552433732313a207472616e736665722063616c6c6572206973206e6f74206f60008301527f776e6572206e6f7220617070726f7665640000000000000000000000000000006020830152604082019050919050565b6128b981612ddb565b82525050565b60006128cb8285612237565b91506128d78284612237565b91508190509392505050565b60006020820190506128f860008301846121a7565b92915050565b600060808201905061291360008301876121a7565b61292060208301866121a7565b61292d60408301856128b0565b818103606083015261293f81846121c5565b905095945050505050565b600060208201905061295f60008301846121b6565b92915050565b6000602082019050818103600083015261297f81846121fe565b905092915050565b600060208201905081810360008301526129a081612268565b9050919050565b600060208201905081810360008301526129c0816122ce565b9050919050565b600060208201905081810360008301526129e081612334565b9050919050565b60006020820190508181036000830152612a0081612374565b9050919050565b60006020820190508181036000830152612a20816123da565b9050919050565b60006020820190508181036000830152612a408161241a565b9050919050565b60006020820190508181036000830152612a6081612480565b9050919050565b60006020820190508181036000830152612a80816124e6565b9050919050565b60006020820190508181036000830152612aa08161254c565b9050919050565b60006020820190508181036000830152612ac0816125b2565b9050919050565b60006020820190508181036000830152612ae0816125f2565b9050919050565b60006020820190508181036000830152612b0081612632565b9050919050565b60006020820190508181036000830152612b2081612698565b9050919050565b60006020820190508181036000830152612b40816126d8565b9050919050565b60006020820190508181036000830152612b6081612718565b9050919050565b60006020820190508181036000830152612b808161277e565b9050919050565b60006020820190508181036000830152612ba0816127e4565b9050919050565b60006020820190508181036000830152612bc08161284a565b9050919050565b6000602082019050612bdc60008301846128b0565b92915050565b6000604051905081810181811067ffffffffffffffff82111715612c0957612c08612f60565b5b8060405250919050565b600067ffffffffffffffff821115612c2e57612c2d612f60565b5b601f19601f8301169050602081019050919050565b600067ffffffffffffffff821115612c5e57612c5d612f60565b5b601f19601f8301169050602081019050919050565b600081519050919050565b600081519050919050565b600082825260208201905092915050565b600082825260208201905092915050565b600081905092915050565b6000612cc182612ddb565b9150612ccc83612ddb565b9250827fffffffffffffffffffffffffffffffffffffffffffffffffffffffffffffffff03821115612d0157612d00612ed3565b5b828201905092915050565b6000612d1782612ddb565b9150612d2283612ddb565b925082612d3257612d31612f02565b5b828204905092915050565b6000612d4882612ddb565b9150612d5383612ddb565b925082821015612d6657612d65612ed3565b5b828203905092915050565b6000612d7c82612dbb565b9050919050565b60008115159050919050565b60007fffffffff0000000000000000000000000000000000000000000000000000000082169050919050565b600073ffffffffffffffffffffffffffffffffffffffff82169050919050565b6000819050919050565b82818337600083830152505050565b60005b83811015612e12578082015181840152602081019050612df7565b83811115612e21576000848401525b50505050565b60006002820490506001821680612e3f57607f821691505b60208210811415612e5357612e52612f31565b5b50919050565b6000612e6482612ddb565b91507fffffffffffffffffffffffffffffffffffffffffffffffffffffffffffffffff821415612e9757612e96612ed3565b5b600182019050919050565b6000612ead82612ddb565b9150612eb883612ddb565b925082612ec857612ec7612f02565b5b828206905092915050565b7f4e487b7100000000000000000000000000000000000000000000000000000000600052601160045260246000fd5b7f4e487b7100000000000000000000000000000000000000000000000000000000600052601260045260246000fd5b7f4e487b7100000000000000000000000000000000000000000000000000000000600052602260045260246000fd5b7f4e487b7100000000000000000000000000000000000000000000000000000000600052604160045260246000fd5b6000601f19601f8301169050919050565b612fa981612d71565b8114612fb457600080fd5b50565b612fc081612d83565b8114612fcb57600080fd5b50565b612fd781612d8f565b8114612fe257600080fd5b50565b612fee81612ddb565b8114612ff957600080fd5b5056fea2646970667358221220190d1fbe09aa14a63f5f4d6245feb80c2b85e39dace329ed703a735bef1d3cfe64736f6c63430008000033",
  "immutableReferences": {},
  "source": "// SPDX-License-Identifier: MIT\npragma solidity ^0.8.0;\n\nimport \"@openzeppelin/contracts/token/ERC721/ERC721.sol\";\nimport \"@openzeppelin/contracts/access/Ownable.sol\";\n\ncontract DuckNFT is ERC721, Ownable {\n\n    address private _manager;\n    string private baseURI;\n\n    constructor() ERC721(\"Forever Fomo Duck Squad\", \"FFDS\") {\n        baseURI = 'https://highstreet.market/ducks/';\n    }\n\n    function setManager(address addr_) external onlyOwner {\n        require(addr_ != address(0), 'invalid address');\n        _manager = addr_;\n    }\n\n    function getManager() external view returns(address) {\n        return _manager;\n    }\n\n    function setBaseURI(string memory uri_) external {\n        require(msg.sender == owner() || msg.sender == _manager, 'permission denied');\n        baseURI = uri_;\n    }\n\n    function mintToken(address to_, uint256 tokenId_) external {\n        require(msg.sender == owner() || msg.sender == _manager, 'permission denied');\n        _safeMint(to_, tokenId_);\n    }\n\n    function _baseURI() internal view override returns (string memory) {\n        return baseURI;\n    }\n\n}\n\n\n\n",
  "sourcePath": "/Users/jack/Documents/GitHub/NFT/contracts/simple-duck-nft/contracts/DuckNFT.sol",
  "compiler": {
    "name": "solc",
    "version": "0.8.0+commit.c7dfd78e.Emscripten.clang"
  },
  "schemaVersion": "3.4.0",
  "updatedAt": "2021-09-12T16:25:09.307Z",
  "networkType": "ethereum",
  "devdoc": {
    "kind": "dev",
    "methods": {
      "approve(address,uint256)": {
        "details": "See {IERC721-approve}."
      },
      "balanceOf(address)": {
        "details": "See {IERC721-balanceOf}."
      },
      "getApproved(uint256)": {
        "details": "See {IERC721-getApproved}."
      },
      "isApprovedForAll(address,address)": {
        "details": "See {IERC721-isApprovedForAll}."
      },
      "name()": {
        "details": "See {IERC721Metadata-name}."
      },
      "owner()": {
        "details": "Returns the address of the current owner."
      },
      "ownerOf(uint256)": {
        "details": "See {IERC721-ownerOf}."
      },
      "renounceOwnership()": {
        "details": "Leaves the contract without owner. It will not be possible to call `onlyOwner` functions anymore. Can only be called by the current owner. NOTE: Renouncing ownership will leave the contract without an owner, thereby removing any functionality that is only available to the owner."
      },
      "safeTransferFrom(address,address,uint256)": {
        "details": "See {IERC721-safeTransferFrom}."
      },
      "safeTransferFrom(address,address,uint256,bytes)": {
        "details": "See {IERC721-safeTransferFrom}."
      },
      "setApprovalForAll(address,bool)": {
        "details": "See {IERC721-setApprovalForAll}."
      },
      "supportsInterface(bytes4)": {
        "details": "See {IERC165-supportsInterface}."
      },
      "symbol()": {
        "details": "See {IERC721Metadata-symbol}."
      },
      "tokenURI(uint256)": {
        "details": "See {IERC721Metadata-tokenURI}."
      },
      "transferFrom(address,address,uint256)": {
        "details": "See {IERC721-transferFrom}."
      },
      "transferOwnership(address)": {
        "details": "Transfers ownership of the contract to a new account (`newOwner`). Can only be called by the current owner."
      }
    },
    "version": 1
  },
  "userdoc": {
    "kind": "user",
    "methods": {},
    "version": 1
  }
}